:100000000C946C010C9489010C9489010C94890165
:100010000C9489010C9489010C9489010C94890138
:100020000C9489010C9489010C9489010C94890128
:100030000C9489010C9489010C9489010C94890118
:100040000C9489010C9489010C9489010C94890108
:100050000C9489010C9489010C9489010C948901F8
:100060000C9489010C9489010C9489010C948901E8
:100070000C9489010C9489010C9489010C948901D8
:100080000C9489010C9489010C94890127052C0595
:10009000190516053005350530051D0530053005F7
:1000A00030053005300530053005300530053005A8
:1000B0003005300530053005300530053005300598
:1000C0003005300530053005300530053005300588
:1000D0003005300530053005300530053005300578
:1000E0003005300530053005300530053005300568
:1000F0003005300530053005220505A84CCDB2D4B9
:100100004EB93836A9020C50B9918688083CA6AA87
:10011000AA2ABE000000803F07634236B79BD8A7DB
:100120001A39685618AEBAAB558C1D3CB7CC57631C
:10013000BD6DEDFD753EF6177231BF000000803FCA
:1001400008000000BE922449123EABAAAA2ABECDE6
:10015000CCCC4C3E00000080BEABAAAAAA3E000058
:100160000000BF000000803F000000000008417850
:10017000D3BB4387D1133D190E3CC3BD4282AD2B87
:100180003E68EC8276BED98FE1A93E4C80EFFFBE7F
:1001900001C4FF7F3F00000000006E616E00696EC9
:1001A00066004E414E494E495459494E46CDCCCC3D
:1001B0003D0AD7233C17B7D13877CC2B329595E63B
:1001C000241FB14F0A000020410000C84200401C1B
:1001D0004620BCBE4CCA1B0E5AAEC59D7400407A68
:1001E00010F35A00A0724E18090010A5D4E80000C0
:1001F000E87648170000E40B54020000CA9A3B005E
:100200000000E1F505000080969800000040420FD4
:10021000000000A08601000000102700000000E898
:1002200003000000006400000000000A000000005D
:10023000000100000000002C76D888DC674F0823FE
:10024000DFC1DFAE59E1B1B796E5E3E453C63AE664
:1002500051997696E8E6C28426EB898C9B62ED4044
:100260007C6FFCEFBC9C9F40F2BAA56FA5F4900593
:100270005A2AF75C936B6CF9676DC11BFCE0E40DC7
:1002800047FEF520E6B500D0ED902E0300943577BB
:10029000050080841E080000204E0A000000C80CE3
:1002A000333333330F986E12831141EF8D2114894C
:1002B0003BE65516CFFEE6DB18D1844B381BF77CA6
:1002C0001D901DA4BBE424203284725E228100C9EB
:1002D000F124ECA1E53D270011241FBECFEFD0E1B2
:1002E000DEBFCDBF11E0A0E0B1E0ECEFFCE202C068
:1002F00005900D92AC36B107D9F721E0ACE6B1E03C
:1003000001C01D92AC3FB207E1F70E9476090C9440
:100310007C160C94000091E0863009F490E0892F5F
:1003200090E00895863071F0833079F0893081F063
:100330009CEF980F923078F08150823078F480E012
:1003400090E0089583E090E0089582E090E00895C1
:1003500082E090E0089581E090E008958FEF9FEFB4
:1003600008952F923F925F926F927F928F929F9209
:10037000AF92BF92CF92DF92EF92FF920F931F93B3
:10038000CF93DF93CDB7DEB72C970FB6F894DEBFCF
:100390000FBECDBF4C0178876F835A0139011C878E
:1003A0000B870E9483097C0100E010E0212C312C96
:1003B00021E030E03A872987CBC0880F991FF401EC
:1003C000E80FF91F808191819E838D83FC01528803
:1003D000852D0E944906892BF1F453C0680106154A
:1003E0001705B0F41A821982BE016F5F7F4FC701F3
:1003F0000E94B009892B61F00F5F1F4FCC0CDD1CF0
:10040000F501EC0DFD1D89819A819183808303C0E4
:100410001A8619862DC0F70182819381892B41F1BB
:10042000852D0E948B016C01892B89F0852D0E94FE
:1004300092019C838B83C7010E94D109FC018289B0
:100440000E9492012B813C81821793073CF6CD28B4
:1004500079F4852D0E9492016C01C7010E94D10997
:10046000FC0182890E949201C816D9060CF4B6CF0D
:100470006D817E81C7010E949109892B09F065C0B9
:100480004DC0F7E05F1209C06D817E81C7010E94F7
:100490009109892B09F059C044C028E0521247C085
:1004A0001FC01A821982BE016F5F7F4FC7010E9471
:1004B000B009892B39F0C801930121503109021785
:1004C000130718F01A86198617C00F5F1F4F880F81
:1004D000991FF501E80FF91F89819A819183808323
:1004E000F70182819381892B39F0C7010E94D109DC
:1004F000FC0182898730A9F6F70182819381892BDB
:1005000021F11A821982BE016F5F7F4FC7010E94DD
:10051000B009892BD1F41A86198633C01A86198638
:1005200030C01A8619862DC01A8619862AC0C614AC
:10053000D704D0F70F5F1F4FCC0CDD1CF501EC0D7D
:10054000FD1D2D813E81318320833FEF231A330A25
:10055000C101EF81F8852E163F0698F46801061553
:10056000170508F42ACF0DC0B8010615170578F451
:100570000F5F1F4F660F771F6A0D7B1DC7010E941B
:10058000B009F70182819381892B71F702C01A8625
:100590001986EB85FC8511830083C7010E948D12AB
:1005A00089859A852C960FB6F894DEBF0FBECDBF15
:1005B000DF91CF911F910F91FF90EF90DF90CF903F
:1005C000BF90AF909F908F907F906F905F903F9083
:1005D0002F9008952F923F924F925F926F927F9249
:1005E0008F929F92AF92BF92CF92DF92EF92FF9243
:1005F0000F931F93CF93DF93CDB7DEB76C970FB6F2
:10060000F894DEBF0FBECDBF4C015B015C8F4B8FFA
:100610000E9483091C01E12CF12CF9C0F701EE0FB7
:10062000FF1FE80DF91DC080D180F601128911115C
:1006300005C0B601C1010E949109E6C0133019F04E
:10064000193009F041C0C1010E94D1098C01198AF9
:100650001A8A1B8A1C8AAE014F5E5F4FBC01C6011D
:100660000E94620489899A892B893C893F932F9340
:100670009F938F9386E091E09F938F931F9280E1E9
:100680008F93CE0101969F938F930E94AF150FB663
:10069000F894DEBF0FBECDBF20E030E00DC0E1E03A
:1006A000F0E0EC0FFD1FE20FF31F4081F801E20FB5
:1006B000F31F40832F5F3F4F2817390784F3F8015A
:1006C000918B808B128AA0C0812F0E944906892BB2
:1006D00009F49AC01E8A1D8A1A8A198ABE016B5EA5
:1006E0007F4FC1010E94B009BE016F5E7F4FC10103
:1006F0000E94B00960E070E08D899E890E94161307
:100700002B013C0160E070E089899A890E941613F0
:100710006F8B788F898F9A8F113039F49B01AC01E0
:10072000C301B2010E94070A3CC0123049F4A30180
:1007300092016F89788D898D9A8D0E94060A31C049
:10074000143049F42F89388D498D5A8DC301B20177
:100750000E94A30B26C01530A9F420E030E0A901C7
:10076000C301B2010E94730A811103C000E010E0CE
:1007700054C0A30192016F89788D898D9A8D0E9452
:100780007D0A0FC0163049F4A30192016F89788D5C
:10079000898D9A8D0E94100C04C060E070E080E0AA
:1007A00090E09F938F937F936F9386E091E09F9368
:1007B0008F931F9280E18F93CE0101969F938F9329
:1007C0000E94AF150FB6F894DEBF0FBECDBF20E07C
:1007D00030E00EC0ED89FE89A1E0B0E0AC0FBD1F96
:1007E000A20FB31F4C91E20FF31F40832F5F3F4FC7
:1007F000281739077CF36D897E89FB01918B808BEB
:10080000128AC1010E949109FFEFEF1AFF0AEA1450
:10081000FB0408F403CF01E010E0F1018281938131
:10082000892BA1F01A821982BE016F5F7F4FC1012F
:100830000E94B00960E070E089819A810E941613DD
:10084000EB8DFC8D6083718382839383C1010E9451
:100850008D12C8016C960FB6F894DEBF0FBECDBFE7
:10086000DF91CF911F910F91FF90EF90DF90CF908C
:10087000BF90AF909F908F907F906F905F904F90C0
:100880003F902F900895CF93DF93EC01DA0120E0A1
:1008900030E002C02F5F3F4F2A173B0754F4FE01A0
:1008A000E20FF31F5081FB01E20FF31F90815917F4
:1008B00089F381E02A173B070CF480E090E0DF9198
:1008C000CF910895AF92BF92CF92DF92EF92FF92B5
:1008D0000F931F93CF93DF93EC01CB018A0160E06C
:1008E00070E00E9416136B017C018A89833061F4E9
:1008F000F7FAF094F7F8F094F801C082D182E2821E
:10090000F38281E090E055C0893009F04DC0A8889D
:10091000B988F4E0AF16B104A9F444E050E069E00E
:1009200071E0CE010E944304892B61F0C701B6013A
:100930000E946E0CF801608371838283938381E04F
:1009400090E037C0F3E0AF16B104A9F443E050E003
:100950006EE071E0CE010E944304892B61F0C70173
:10096000B6010E94600CF8016083718382839383D7
:1009700081E090E01EC0F3E0AF16B104C1F443E0A3
:1009800050E062E171E0CE010E944304009789F0DB
:10099000C701B6010E94780AF801608371838283DF
:1009A000938381E090E005C080E090E002C080E0A9
:1009B00090E0DF91CF911F910F91FF90EF90DF902A
:1009C000CF90BF90AF9008954F925F926F927F92B9
:1009D0008F929F92AF92BF92CF92DF92EF92FF924F
:1009E0000F931F93CF93DF935C016B014A01390191
:1009F000C0E0D0E020E030E04AE00FEF1FEFA9C0F8
:100A000080E2581609F4A4C0ECE25E1204C00F2E76
:100A1000FEE25F2EF02D852D90E0FC01B897E733C4
:100A2000F105F0F4EA5BFF4F0C94B81144244394B1
:100A30001FC06894442442F81BC00F2EF5E04F2ECF
:100A4000F02D16C00F2EF6E04F2EF02D11C00F2EF8
:100A5000F7E04F2EF02D0CC06894442443F808C0F2
:100A60000F2EFAE04F2EF02D03C06894442441F875
:100A7000FAE04F1207C080ED850D8A3090F08EE2CB
:100A8000581689F0EAE04E1681F0F2E04F1225C0C8
:100A90004A3081F0473099F04430B1F04530E9F404
:100AA00018C0412C1AC0412C18C00F2EF9E04F2E4F
:100AB000F02D13C00F2EF3E04F2EF02D0EC00F2E91
:100AC000F3E04F2EF02D09C00F2EF3E04F2EF02D46
:100AD00004C00F2EF3E04F2EF02D411002C044232E
:100AE000C9F089E0481202C04930B1F00F5F1F4FD2
:100AF00008151905E0F57801EE0CFF1CEC0CFD1C47
:100B000083E190E00E94F511F7019183808380E0FA
:100B100090E003C0C90101C0C901F801EE0FFF1F39
:100B2000EC0DFD1DA081B181109721F152964C92E0
:100B3000A081B1819C012F5F3F4F51963C932E9332
:100B4000509740815181FA01E80FF91F5082442DDE
:100B50002196F501EC0FFD1F5080511051CF0F5F12
:100B60001F4FF3011183008381E090E005C080E016
:100B700090E002C080E090E0DF91CF911F910F9153
:100B8000FF90EF90DF90CF90BF90AF909F908F90AD
:100B90007F906F905F904F900895CF92DF92EF9289
:100BA000FF920F931F93CF93DF936C017B01C0E003
:100BB000D0E062C08E01000F111F0C0D1D1DD80169
:100BC000ED91FC9111978289893009F054C0808998
:100BD00091898130910529F52081253611F5128AF8
:100BE0002C9111963C9180E48F938DE28F9388EF46
:100BF0008F9384E58F9386E191E09F938F933F934A
:100C00002F930E94DF15D801ED91FC91918B808B81
:100C1000EDB7FEB738960FB6F894FEBF0FBEEDBF26
:100C20002AC0029741F58081803729F58181893674
:100C300011F5128AD8012C9111963C9180E48F9382
:100C400089E48F938FE08F938BED8F9386E191E012
:100C50009F938F933F932F930E94DF15D801ED91BF
:100C6000FC91918B808BEDB7FEB738960FB6F89458
:100C7000FEBF0FBEEDBF2196CE15DF0508F49ACF5B
:100C8000DF91CF911F910F91FF90EF90DF90CF9068
:100C900008959FEF980F963028F0893031F481E065
:100CA00090E0089581E090E0089580E090E008955C
:100CB0006F927F928F929F92AF92BF92CF92DF926C
:100CC000EF92FF920F931F93CF93DF934C017B0121
:100CD00000E010E00F2EFAE06F2EF02DA12CB12CC9
:100CE00058C0F801EE0FFF1FE80DF91DC081D1813A
:100CF0007A8887E0781204C08FEFA81AB80A46C035
:100D000088E0781204C081E0A81AB1083FC087E0EB
:100D1000781204C088E0681609F445C0711003C059
:100D2000662009F443C0872D0E9449066C01892B77
:100D300061F0862D0E944906892B39F083E07812F4
:100D400004C08CEF860D8230A0F587E0681205C0E4
:100D5000CD2819F083E078122FC0772071F016C0EB
:100D6000FE01E80FF91F20812E3211F44F5F5F4F13
:100D70004230510524F5019604C080E090E040E047
:100D800050E0288939898217930750F30F5F1F4F6E
:100D9000672C0E151F0508F4A4CF81E0AB2809F0DD
:100DA00080E090E00EC080E090E00BC080E090E03A
:100DB00008C080E090E005C080E090E002C080E0E4
:100DC00090E0DF91CF911F910F91FF90EF90DF9016
:100DD000CF90BF90AF909F908F907F906F9008952D
:100DE000E2E6F0E080818860808385E08A95F1F713
:100DF00000008081877F808385E08A95F1F700007D
:100E0000089582B18F7782B9E2E6F0E080818D7F2C
:100E10008083808184608083E2E6F0E08081886066
:100E2000808382E08A95F1F700C081B1807890815B
:100E3000977F908392E09A95F1F700C09081986037
:100E4000908392E09A95F1F700C09081977F90830C
:100E500092E09A95F1F700C08111DECF80818B7FFF
:100E6000808382B1806882B90895CF93C82F0E9491
:100E70000107E2E6F0E080818D7F808380818B7FB7
:100E800080838081877F808383B18F7083B983B1B2
:100E90009C2F907F892B83B90E94F00683B18F70BD
:100EA00083B923B130E1C39FC0011124822B83B9E0
:100EB0000E94F006CF910895CF93C82F0E9401079A
:100EC000E2E6F0E080818260808380818B7F808396
:100ED0008081877F808383B18F7083B983B19C2F9A
:100EE000907F892B83B90E94F00683B18F7083B9FC
:100EF00023B130E1C39FC0011124822B83B90E942A
:100F0000F006CF9108958091700190917101880F42
:100F1000991F880F991F20916E0130916F01220F48
:100F2000331F8860282B80916C01822B0E9435072B
:100F3000089582B1806F82B9E1E6F0E080818E6031
:100F40008083E2E6F0E080818D7F808380818D7FE9
:100F5000808380E283B90E94F0060E94F0060E941E
:100F6000F00688E20E94350788E20E94350788E291
:100F70000E94350782E00E94350781E00E94350714
:100F8000109271011092700110926F0110926E0117
:100F900010926D0110926C010E94830781E090E035
:100FA00090937301809372010895809172019091E2
:100FB0007301892B11F40E94990708950E94D507A7
:100FC00081E090E090937101809370010E9483070B
:100FD00008950E94D50781E00E94350708950F9378
:100FE0001F93CF93DF938C010E94D507C0E0D0E020
:100FF00003C00E945C072196F801EC0FFD1F808161
:101000008111F7CFDF91CF911F910F91089583E365
:1010100090E008959093900089B988E18AB98EE0B4
:101020008093950008955D9BFECF8CB908955F9BDA
:10103000FECF8CB108950F931F93CF93DF93CDB75D
:10104000DEB7C851D1400FB6F894DEBF0FBECDBF9A
:101050008C010E94E907CF57DF4F19821882C158CF
:10106000D040CD5FDE4F19821882C350D1409E011F
:101070002F573F4F40E450E0BE016F5F7F4FC801E4
:101080000E94E404892B79F48AE191E00E94EF0741
:10109000CF57DF4F68817981C158D040CE0101968A
:1010A0000E94DE09A9C0CF57DF4F68817981C158FE
:1010B000D040CE0101960E94CD05CF57DF4F688109
:1010C0007981C158D040CE0101960E945806892BE3
:1010D00079F484E291E00E94EF07CF57DF4F6881F7
:1010E0007981C158D040CE0101960E94DE0984C0AA
:1010F000CF57DF4F68817981C158D0408E010D5F95
:101100001E4F20E430E0AE014D575F4FCE010196F7
:101110000E94B101892B79F481E391E00E94EF07ED
:10112000CF57DF4F68817981C158D040CE010196F9
:101130000E94DE0961C0CB5FDE4F188219821A82DD
:101140001B82C550D140CD5FDE4F68817981C3508D
:10115000D140AE014B5F5E4FCE018D579F4F0E9435
:10116000EA02892B79F485E491E00E94EF07CF57DA
:10117000DF4F68817981C158D040CE0101960E942D
:10118000DE093AC0C85FDE4F8881C850D1408F93D6
:10119000C95FDE4F8881C750D1408F93CA5FDE4F51
:1011A0008881C650D1408F93CB5FDE4F8881C55078
:1011B000D1408F9386E091E09F938F931F9280E1BF
:1011C0008F938E01075F1E4F1F930F930E94AF15E1
:1011D0000E94E907C8010E94EF07CF57DF4F6881DF
:1011E0007981C158D040CE0101960E94DE090FB628
:1011F000F894DEBF0FBECDBFC85EDE4F0FB6F894C9
:10120000DEBF0FBECDBFDF91CF911F910F9108952B
:10121000AC0120E030E007C0FA01E20FF31F90E2DA
:1012200090832F5F3F4F26173707B0F30895CF9372
:10123000DF938AE00E941308C0E0D0E004C08FE78B
:101240000E94130821966091740170917501C61770
:10125000D707ACF386E791E00E9408091092750168
:1012600010927401DF91CF910895CF93DF93209175
:10127000740130917501203831052CF40CC00E94A6
:101280001308219602C0CAE5D1E088818111F7CF09
:101290000E94170928C08D3339F486E791E00E9437
:1012A0001B080E9417091FC08F3781F412161306FE
:1012B000D4F4215031093093750120937401F90160
:1012C000EA58FE4F10820E9413080DC0A9014F5F1B
:1012D0005F4F5093750140937401F901EA58FE4F36
:1012E00080830E941308DF91CF9108950E94070820
:1012F0000E940A080E94E9070E94DE070E94170860
:101300000E943509FBCF84E890E00E94F511009718
:1013100039F020E430E0FC01318320831382128213
:101320000895FC01892BB1F0228133818081918164
:101330002817390790F4C9010196938382832E5FA1
:101340003F4F220F331FE20FF31F7183608381E051
:1013500090E0089580E090E0089580E090E00895A6
:101360000097C9F0FC012281338121153105B1F0CC
:10137000A90141505109538342832F5F3F4F220FF0
:10138000331FE20FF31F80819181FB0191838083E2
:1013900081E090E0089580E090E0089580E090E0A2
:1013A0000895DC011296ED91FC9113973196EE0FA2
:1013B000FF1FE80FF91F808191810895CF92DF927E
:1013C000EF92FF920F931F93CF93DF936C017B01FA
:1013D00000E010E00FC0E801CC0FDD1FCC0DDD1DDB
:1013E00088819981009721F00E948D1219821882BC
:1013F0000F5F1F4F0E151F0570F3DF91CF911F91E7
:101400000F91FF90EF90DF90CF9008955058BB2739
:10141000AA270E941E0A0C94550B0E941C0B38F040
:101420000E94230B20F039F49F3F19F426F40C940A
:10143000190B0EF4E095E7FB0C94130BE92F0E94B7
:101440007A0B58F3BA17620773078407950720F0E1
:1014500079F4A6F50C949C0B0EF4E0950B2EBA2FA4
:10146000A02D0B01B90190010C01CA01A0011124AA
:10147000FF27591B99F0593F50F4503E68F11A1656
:10148000F040A22F232F342F4427585FF3CF4695E7
:1014900037952795A795F0405395C9F77EF41F1609
:1014A000BA0B620B730B840BBAF09150A1F0FF0FD3
:1014B000BB1F661F771F881FC2F70EC0BA0F621FBF
:1014C000731F841F48F4879577956795B795F795AF
:1014D0009E3F08F0B0CF9395880F08F09927EE0F44
:1014E0009795879508950E94EF0A08F481E0089582
:1014F0000E942C0BE3950C94660B0E94910A0C94AD
:10150000550B0E94230B58F00E941C0B40F029F44D
:101510005F3F29F00C94130B51110C949D0B0C940C
:10152000190B0E947A0B68F39923B1F3552391F3B9
:10153000951B550BBB27AA2762177307840738F042
:101540009F5F5F4F220F331F441FAA1FA9F335D09F
:101550000E2E3AF0E0E832D091505040E695001C53
:10156000CAF72BD0FE2F29D0660F771F881FBB1F0D
:10157000261737074807AB07B0E809F0BB0B802DEB
:10158000BF01FF2793585F4F3AF09E3F510578F017
:101590000C94130B0C949D0B5F3FE4F3983ED4F333
:1015A000869577956795B795F7959F5FC9F7880FEB
:1015B000911D9695879597F90895E1E0660F771F3D
:1015C000881FBB1F621773078407BA0720F0621BCE
:1015D000730B840BBA0BEE1F88F7E0950895990FF3
:1015E0000008550FAA0BE0E8FEEF16161706E807ED
:1015F000F907C0F012161306E407F50798F0621B0E
:10160000730B840B950B39F40A2661F0232B242BE2
:10161000252B21F408950A2609F4A140A6958FEF01
:10162000811D811D089597F99F6780E870E060E053
:1016300008959FEF80EC089500240A94161617066B
:1016400018060906089500240A94121613061406B3
:10165000050608950C94190B0E94820BD8F3E894A8
:10166000E0E0BB279F57F0F02AED3FE049EC06C0D1
:10167000EE0FBB0F661F771F881F28F0B23A620774
:101680007307840728F0B25A620B730B840BE3953F
:101690009A9572F7803830F49A95BB0F661F771FC2
:1016A000881FD2F790480C94EA0C092E0394000C82
:1016B00011F4882352F0BB0F40F4BF2B11F460FFEC
:1016C00004C06F5F7F4F8F4F9F4F0895EF93E0FFF0
:1016D00007C0A2EA2AED3FE049EC5FEB0E941E0A38
:1016E0000E94550B0F90039401FC9058EAEFF0E034
:1016F0000C94240D57FD9058440F551F59F05F3F2F
:1017000071F04795880F97FB991F61F09F3F79F023
:1017100087950895121613061406551FF2CF4695A5
:10172000F1DF08C0161617061806991FF1CF869527
:101730007105610508940895E894BB27662777270B
:10174000CB0197F908950E94B60B0C94550B0E949B
:101750001C0B38F00E94230B20F0952311F00C9401
:10176000130B0C94190B11240C949D0B0E947A0BF3
:1017700070F3959FC1F3950F50E0551F629FF001E4
:10178000729FBB27F00DB11D639FAA27F00DB11DFD
:10179000AA1F649F6627B00DA11D661F829F222786
:1017A000B00DA11D621F739FB00DA11D621F839F0D
:1017B000A00D611D221F749F3327A00D611D231FE3
:1017C000849F600D211D822F762F6A2F11249F5731
:1017D00050409AF0F1F088234AF0EE0FFF1FBB1F34
:1017E000661F771F881F91505040A9F79E3F5105F3
:1017F00080F00C94130B0C949D0B5F3FE4F3983E28
:10180000D4F3869577956795B795F795E7959F5F9C
:10181000C1F7FE2B880F911D9695879597F908952E
:10182000FA01EE0FFF1F309621053105A1F1611578
:10183000710561F48038BFE39B0749F168949038E3
:10184000810561F08038BFEF9B0741F099234AF58D
:10185000FF3FE1053105210519F1E8940894E7956A
:10186000D901AA2329F4AB2FBE2FF85FD0F310C003
:10187000FF5F70F4A695E0F7F73950F019F0FF3AE2
:1018800038F49F779F930DD00F9007FC90580895E0
:1018900046F00C94190B60E070E080E89FE3089537
:1018A0004FE79F775F934F933F932F930E94820D53
:1018B0002F913F914F915F910E94A30B0C94B60C16
:1018C0009F930E942C0B0F9007FCEE5F0C94660B0D
:1018D00019F416F40C94190B0C94E80C0E94820B6A
:1018E000B8F39923C9F3B6F39F57550B87FF0E94AE
:1018F000F60C0024A0E640EA900180585695979592
:1019000028F4805C660F771F881F20F026173707A2
:10191000480730F4621B730B840B202931294A2BB2
:10192000A69517940794202531254A2758F7660F66
:10193000771F881F20F026173707480730F4620BFF
:10194000730B840B200D311D411DA09581F7B9014A
:10195000842F9158880F96958795089529F416F04D
:101960000C94130B0C949C0B0C94190B0E94820B7F
:10197000A8F39638A0F707F80F92E8942BE33AEA19
:1019800048EB5FE70E94B90B0F920F920F924DB791
:101990005EB70F920E94CA0DE8E1F1E00E94FD0CD3
:1019A0004F915F91EF91FF91E595EE1FFF1F49F079
:1019B000FE57E0684427EE0F441FFA95E1F7419582
:1019C000550B0E94440D0F9007FE0C94380D08959E
:1019D0009F3F31F0915020F4879577956795B795A3
:1019E000880F911D9695879597F9089591505040CD
:1019F000660F771F881FD2F70895DF93CF931F9349
:101A00000F93FF92EF92DF927B018C01689406C0E6
:101A1000DA2EEF010E94B60BFE01E894A591259104
:101A2000359145915591A6F3EF010E941E0AFE01E2
:101A30009701A801DA9469F7DF90EF90FF900F917A
:101A40001F91CF91DF9108959F938F937F936F9311
:101A5000FF93EF939B01AC010E94A30BEF91FF91C9
:101A60000E94FD0C2F913F914F915F910C94A30B1D
:101A70009B01AC0160E070E080E89FE30C947D0A7C
:101A80000C94130B0C94E80C0E94820BD8F399234E
:101A9000C9F3940F511DA3F39150504094F059F0A5
:101AA000882332F0660F771F881F91505040C1F78E
:101AB0009E3F51052CF7880F911D9695879597F9B4
:101AC00008955F3FACF0983E9CF0BB2786957795D4
:101AD0006795B79508F4B1609395C1F7BB0F58F7B8
:101AE00011F460FFE8CF6F5F7F4F8F4F9F4FE3CFC1
:101AF0000C949D0B16F00C94E80C0C94190B689444
:101B00000C94130B0E94820BA8F39923C1F3AEF33C
:101B1000DF93CF931F930F93FF92C92FDD27882365
:101B20002AF02197660F771F881FDAF720E030E050
:101B300040E85FEB9FE3883920F0803E38F0219643
:101B40008F770E94070AE0E4F1E004C00E94070AD0
:101B5000EDE6F1E00E94FD0C8B01BE01EC01FB2ED5
:101B60006F5771097595771F880B990B0E94000EAE
:101B700028E132E741E35FE30E94B60BAF2D980105
:101B8000AE01FF900F911F91CF91DF910E941E0A2D
:101B90000C94550BFA01DC01AA0FBB1F9B01AC0191
:101BA000BF5728F4222733274427507820C0B75145
:101BB00090F4AB2F0024469537952795011CA395EB
:101BC000D2F3002071F0220F331F441FB395DAF3D4
:101BD0000ED00C94060A61307105A0E88A07B94658
:101BE00030F49B01AC0166277727882790783096E0
:101BF00021F020833183428353830895E89409C000
:101C000097FB3EF490958095709561957F4F8F4F2F
:101C10009F4F9923A9F0F92F96E9BB279395F69545
:101C2000879577956795B795F111F8CFFAF4BB0FC3
:101C300011F460FF1BC06F5F7F4F8F4F9F4F16C027
:101C4000882311F096E911C0772321F09EE8872FB1
:101C5000762F05C0662371F096E8862F70E060E06D
:101C60002AF09A95660F771F881FDAF7880F9695E6
:101C7000879597F90895A0E1B0E0E1E4FEE00C94C7
:101C8000BE117C011B016A01FC011782168283814F
:101C900081FF44C39E012F5F3F4F3901F7019381BC
:101CA000F10193FD859193FF81911F01882309F430
:101CB00031C3853239F493FD859193FF81911F01E2
:101CC000853239F4B70190E00E9473155601650121
:101CD000E5CF10E0512C912CFFE1F915D8F08B32B3
:101CE00079F038F4803279F08332A1F4F92DF06183
:101CF0002EC08D3261F0803369F4292D21602DC012
:101D0000392D3260932E892D8460982E2AC0E92DBA
:101D1000E86015C097FC2DC020ED280F2A3088F40C
:101D200096FE06C03AE0139F200D1124122F19C011
:101D30008AE0589E200D1124522EE92DE0629E2E3D
:101D400010C08E3231F496FCE5C2F92DF0649F2E5E
:101D500008C08C3621F4292D2068922E02C08836C6
:101D600041F4F10193FD859193FF81911F01811150
:101D7000B3CF9BEB980F933020F4992D9061805E48
:101D800007C09BE9980F933008F066C1992D9F7E9C
:101D900096FF16E09F73992E853619F49064992E5C
:101DA00008C0863621F4392F3068932E02C01111F5
:101DB000115097FE07C01C3350F444244394410E45
:101DC00027E00BC0183038F027E017E005C027E007
:101DD0009CE3492E02C0212F412C560184E0A80E1D
:101DE000B11CF6016081718182819381042DA30170
:101DF0000E9464146C01F981FC87F0FF02C0F3FFBC
:101E000006C091FC06C092FE06C000E205C00DE2CD
:101E100003C00BE201C000E08C858C7019F0011149
:101E20005AC29BC297FE10C04C0CFC85F4FF04C044
:101E30008A81813309F44A94141474F528E0241536
:101E400078F588E0482E2CC096FC2AC0812F90E0BF
:101E50008C159D059CF03CEFC3163FEFD30674F044
:101E6000892D8068982E0AC0E2E0F0E0EC0FFD1F9B
:101E7000E10FF11D8081803319F411501111F4CF5D
:101E800097FE0EC044244394410E812F90E0C81663
:101E9000D9062CF41C1904C04424439401C010E05A
:101EA00097FE06C01C141D0434F4C601019605C03B
:101EB00085E090E002C081E090E0011101961123DD
:101EC00031F0212F30E02F5F3F4F820F931F252DE0
:101ED00030E08217930714F4581A01C0512C892D51
:101EE000897049F4552039F0B70180E290E00E94F2
:101EF00073155A94F7CF002329F0B701802F90E093
:101F00000E94731593FC09C0552039F0B70180E396
:101F100090E00E9473155A94F7CF97FE4CC046018B
:101F2000D7FE02C0812C912CC60188199909F301B2
:101F3000E80FF91FFE87ED87960124193109388BC8
:101F40002F87012F10E01195019511093FEF83169E
:101F5000930629F4B7018EE290E00E947315C8142D
:101F6000D9044CF08F8598898815990524F4ED855E
:101F7000FE85818101C080E3F1E08F1A91082D85F3
:101F80003E852F5F3F4F3E872D87801691062CF0B0
:101F9000B70190E00E947315D9CFC814D90441F459
:101FA0009A81963320F4953319F43C8534FF81E30C
:101FB000B70190E04EC08A81813319F09C859F7EE5
:101FC0009C87B70190E00E947315111105C094FC25
:101FD00018C085E690E017C0B7018EE290E00E943D
:101FE00073151E5F82E001E0080FF301E80FF11D99
:101FF0008081B70190E00E947315802F0113F3CF09
:10200000E6CF85E490E0B7010E947315D7FC06C0C7
:10201000C114D10441F4EC85E4FF05C0D194C1940E
:10202000D1088DE201C08BE2B70190E00E947315E8
:1020300080E32AE0C216D1042CF08F5FFAE0CF1AB9
:10204000D108F7CFB70190E00E947315B701C60120
:10205000C0960E94731554C1833631F0833779F0EE
:10206000833509F056C020C0560132E0A30EB11CE2
:10207000F6018081898301E010E0630112C05601FE
:10208000F2E0AF0EB11CF601C080D18096FE03C015
:10209000612F70E002C06FEF7FEFC6010E946815EC
:1020A0008C01F92DFF7714C0560122E0A20EB11C5D
:1020B000F601C080D18096FE03C0612F70E002C09F
:1020C0006FEF7FEFC6010E945D158C01F92DF0685E
:1020D0009F2EF3FD1AC0852D90E008171907A8F46C
:1020E000B70180E290E00E9473155A94F4CFF60194
:1020F00097FC859197FE81916F01B70190E00E9456
:10210000731551105A94015011090115110579F7F1
:10211000F7C0843611F0893661F5560197FE09C083
:1021200024E0A20EB11CF60160817181828193814D
:102130000AC0F2E0AF0EB11CF60160817181072E7A
:10214000000C880B990BF92DFF769F2E97FF09C085
:1021500090958095709561957F4F8F4F9F4FF06858
:102160009F2E2AE030E0A3010E940116C82EC61857
:102170003FC0092D853721F40F7E2AE030E01DC0D5
:10218000097F8F3691F018F4883559F0C3C0803735
:1021900019F0883711F0BEC0006104FF09C0046067
:1021A00007C094FE08C0066006C028E030E005C005
:1021B00020E130E002C020E132E0560107FF09C013
:1021C00084E0A80EB11CF601608171818281938147
:1021D00008C0F2E0AF0EB11CF6016081718180E0B1
:1021E00090E0A3010E940116C82EC6180F77902E0A
:1021F00096FE0BC0092D0E7FC11650F494FE0AC046
:1022000092FC08C0092D0E7E05C0DC2C092D03C0F0
:10221000DC2C01C0D12E04FF0DC0FE01EC0DF11D20
:102220008081803311F4097E09C002FF06C0D39477
:10223000D39404C0802F867809F0D39403FD11C095
:1022400000FF06C01C2DD51480F4150D1D190DC0FE
:10225000D51458F4B70180E290E00E947315D3942E
:10226000F7CFD51410F45D1801C0512C04FF10C035
:10227000B70180E390E00E94731502FF17C001FDD3
:1022800003C088E790E002C088E590E0B7010CC089
:10229000802F867859F001FF02C08BE201C080E2F6
:1022A00007FD8DE2B70190E00E947315C11638F466
:1022B000B70180E390E00E9473151150F7CFCA94E4
:1022C000F301EC0DF11D8081B70190E00E947315C0
:1022D000C110F5CF15C0F4E0F51560F584E0581A8B
:1022E00093FE1FC0011127C02C8523FF2AC00AE9D5
:1022F00011E0392D3071932EF8018491811124C0A1
:10230000552009F4E4CCB70180E290E00E947315F7
:102310005A94F6CFF7018681978126C08FEF9FEF01
:1023200023C0B70180E290E00E9473155A945110C7
:10233000F8CFD8CF512CB701802F90E00E947315B1
:10234000D3CF0EE911E0D5CF91108052B70190E0C4
:102350000E9473150F5F1F4FCFCF23E0251510F498
:1023600083E0BDCF512CC0CF6096E2E10C94DA112E
:10237000EE0FFF1F0590F491E02D09942F923F92EC
:102380004F925F926F927F928F929F92AF92BF9285
:10239000CF92DF92EF92FF920F931F93CF93DF9331
:1023A000CDB7DEB7CA1BDB0B0FB6F894DEBF0FBE8E
:1023B000CDBF09942A88398848885F846E847D84DB
:1023C0008C849B84AA84B984C884DF80EE80FD80DD
:1023D0000C811B81AA81B981CE0FD11D0FB6F89453
:1023E000DEBF0FBECDBFED0108950F931F93CF93B6
:1023F000DF938230910510F482E090E0E091F801E3
:10240000F091F90120E030E0A0E0B0E0309719F160
:10241000408151810281138148175907C8F0841700
:10242000950769F4109731F012960C931297139652
:102430001C9327C00093F8011093F90122C02115C5
:10244000310519F04217530718F49A01BD01EF0145
:10245000DF01F801DBCF21153105F9F0281B390B1D
:102460002430310580F48A819B816115710521F04A
:10247000FB019383828304C09093F9018093F80158
:10248000FE01329644C0FE01E20FF31F8193919347
:1024900022503109398328833AC02091F6013091C6
:1024A000F701232B41F42091020130910301309375
:1024B000F7012093F60120910001309101012115CF
:1024C000310541F42DB73EB740910401509105010B
:1024D000241B350BE091F601F091F701E217F307A9
:1024E000A0F42E1B3F0B2817390778F0AC014E5F84
:1024F0005F4F2417350748F04E0F5F1F5093F701C9
:102500004093F6018193919302C0E0E0F0E0CF01A7
:10251000DF91CF911F910F910895CF93DF93009793
:1025200009F481C0FC01329713821282A091F80154
:10253000B091F901109781F420813181820F931FAE
:102540002091F6013091F7012817390751F5F093E2
:10255000F701E093F60167C0ED0120E030E0CE170F
:10256000DF0740F44A815B819E0141155105F1F07E
:10257000EA01F5CFD383C28340815181840F951F37
:10258000C817D90759F488819981840F951F02963D
:10259000918380838A819B81938382832115310576
:1025A00029F4F093F901E093F8013DC0E901FB83C0
:1025B000EA8349915991C40FD51FEC17FD0761F4C7
:1025C00080819181840F951F0296E9019983888308
:1025D000828193819B838A83E0E0F0E012968D9163
:1025E0009C911397009719F0FD01DC01F7CF8D91B5
:1025F0009C9111979D012E5F3F4F820F931F209159
:10260000F6013091F7012817390769F4309729F45A
:102610001092F9011092F80102C013821282B09355
:10262000F701A093F601DF91CF910895A0E0B0E00B
:10263000ECE1F3E10C94C411EC016B01611571053F
:1026400019F0FB01918380837E01FFEFEF1AFF0AEF
:102650000881802F90E00E943C15892B11F0E70142
:10266000F3CF0D3239F47E0182E0E80EF11C0981CE
:1026700011E008C00B3229F47E0192E0E90EF11C52
:10268000098110E0E701219743E050E06AEA71E038
:10269000CE010E944515892BC1F4239645E050E0F8
:1026A00065EA71E0CE010E944515892B09F4259653
:1026B000C114D10419F0F601D183C0831111F6C001
:1026C00060E070E080E89FE7FAC043E050E062EA33
:1026D00071E0CE010E944515892B59F4C114D10433
:1026E00009F4E9C0F2E0EF0EF11CF601F182E0829C
:1026F000E2C020E030E0A901C0E0D0E0F70180EDC9
:10270000A82EA00E89E08A1530F1912F9260B92E83
:10271000812F887012FF04C0811124C0219622C02D
:1027200081112197A5E0B0E00E946216DC01CB0187
:10273000880F991FAA1FBB1F9C01AD012A0D311DD7
:10274000411D511D283989E93807480789E1580793
:1027500048F0166006C09EEFA9120AC013FD40C0E3
:102760001860B12E8FEFE81AF80A00811B2DC6CF32
:10277000802F8F7D8534A1F580818D3211F4106119
:1027800006C08B3221F0319661E070E004C0818197
:10279000329662E070E080538A3018F0E61BF70B47
:1027A0001FC060E070E060389CE079075CF4DB01FA
:1027B000AA0FBB1FAA0FBB1F6A0F7B1F660F771FD5
:1027C000680F711D3196DF0111978C9180538A300B
:1027D00050F314FF03C0719561957109C60FD71F9F
:1027E00011FF08C0C114D10429F0CF010197F601EF
:1027F00091838083CA01B9010E94FE0D212F2370AD
:10280000233019F04B015C0106C04B015C01B7FAA3
:10281000B094B7F8B09420E030E0A901C501B4014C
:102820000E94730A882309F43EC0D7FF06C0D195E1
:10283000C195D10901EC11E002C009ED11E0680178
:10284000F8E1CF1AD10890E2E92EF12CCE15DF0580
:1028500074F0F8012591359145915491C501B40169
:102860000E94A30B4B015C01CE19DF09EFCF04508E
:102870001109F594E7940C151D0541F78A2D880F71
:102880008B2D881F8F3F49F020E030E0A901C50162
:10289000B4010E94730A811106C082E290E0909315
:1028A000FB018093FA01C501B40109C060E070E04A
:1028B00080E89FEF04C060E070E080EC9FE7CDB758
:1028C000DEB7ECE00C94E011283008F027E0332765
:1028D000DA01990F311D87FD916000966105710540
:1028E00039F432602E5F3D9330E32A95E1F7089585
:1028F0009F3F30F080387105610509F03C5F3C5F17
:102900003D93913008F08068911DDF93CF931F9322
:102910000F93FF92EF92192F987F9695E92F969536
:102920009695E90FFF27E95CFD4F99273327EE24A1
:10293000FF24A701E70105900894079428F4360FB7
:10294000E71EF81E491F511D660F771F881F991F2C
:102950000694A1F70590079428F4E70EF81E491F86
:10296000561FC11D770F881F991F661F0694A1F778
:102970000590079428F4F80E491F561FC71FD11D54
:10298000880F991F661F771F0694A1F7059007947B
:1029900020F4490F561FC71FD81F990F661F771FB6
:1029A000881F0694A9F784911095177041F0D69569
:1029B000C79557954795F794E7941A95C1F7EDEDAC
:1029C000F1E0689415901591359165919591059078
:1029D0007FE27395E118F10A430B560BC90BD0093E
:1029E000C0F7E10CF11E431F561FC91FD01D7EF416
:1029F000703311F48A95E6CFE894015030F0080F57
:102A00000AF40027021708F4202F2395022F7A33A7
:102A100028F079E37D932A95E9F710C07D932A95F4
:102A200089F6069497956795379517951794E11849
:102A3000F10A430B560BC90BD00998F023957E91F0
:102A400073957A3308F070E37C932013B8F77E9186
:102A500070617D9330F0839571E37D9370E32A95E7
:102A6000E1F71124EF90FF900F911F91CF91DF912B
:102A7000992787FD9095089591110C945F168032E7
:102A800019F089508550C8F70895FB01DC014150C9
:102A9000504088F08D9181341CF08B350CF4805EB1
:102AA000659161341CF06B350CF4605E861B61111E
:102AB00071F3990B0895881BFCCFFC0105906150C0
:102AC00070400110D8F7809590958E0F9F1F089544
:102AD000FC016150704001900110D8F780959095ED
:102AE0008E0F9F1F08950F931F93CF93DF93FB01CA
:102AF000238121FD03C08FEF9FEF2CC022FF16C062
:102B000046815781248135814217530744F4A081BF
:102B1000B1819D012F5F3F4F318320838C932681AC
:102B200037812F5F3F4F3783268314C08B01EC0121
:102B3000FB010084F185E02D0995892BE1F6D80190
:102B400016968D919C911797019617969C938E934C
:102B50001697CE01DF91CF911F910F910895AEE0AE
:102B6000B0E0E5EBF5E10C94CC110D891E898F895D
:102B7000988D26E02C831A83098397FF02C080E09A
:102B800090E801979E838D83AE01455E5F4F698D0E
:102B90007A8DCE0101960E943B0E4D815E8157FDDC
:102BA0000AC02F813885421753070CF49A01F801A7
:102BB000E20FF31F10822E96E4E00C94E811AEE0D1
:102BC000B0E0E5EEF5E10C94CC110D891E8986E0AC
:102BD0008C831A8309838FEF9FE79E838D83AE01D9
:102BE000475E5F4F6F89788DCE0101960E943B0E44
:102BF000EF81F885E00FF11F10822E96E4E00C942F
:102C0000E811FA01AA27283051F1203181F1E89426
:102C10006F936E7F6E5F7F4F8F4F9F4FAF4FB1E0CF
:102C20003ED0B4E03CD0670F781F891F9A1FA11DCA
:102C3000680F791F8A1F911DA11D6A0F711D811DCB
:102C4000911DA11D20D009F468943F912AE0269F90
:102C500011243019305D3193DEF6CF010895462FEF
:102C60004770405D4193B3E00FD0C9F7F6CF462FD0
:102C70004F70405D4A3318F0495D31FD4052419339
:102C800002D0A9F7EACFB4E0A695979587957795F6
:102C90006795BA95C9F700976105710508959B017D
:102CA000AC010A2E06945795479537952795BA9506
:102CB000C9F7620F731F841F951FA01D08959927E0
:102CC000882708950E946D16A59F900DB49F900DC2
:102CD000A49F800D911D11240895A29FB001B39F60
:102CE000C001A39F700D811D1124911DB29F700D15
:0C2CF000811D1124911D0895F894FFCF60
:102CFC000000FC012000256600737172740073697A
:102D0C006E00636F7300256C66006C6578206572CD
:102D1C00726F720073796E746178206572726F7263
:102D2C00006572726F7220696E20636F6E766572C9
:102D3C0073696F6E006572726F7220696E206361C9
:102D4C006C63756C6174696F6E0045787020697383
:0C2D5C0020746F6F206C6F6E6721000008
:00000001FF
