:100000000C946C010C9489010C9489010C94890165
:100010000C9489010C9489010C9489010C94890138
:100020000C9489010C9489010C9489010C94890128
:100030000C9489010C9489010C9489010C94890118
:100040000C9489010C9489010C9489010C94890108
:100050000C9489010C9489010C9489010C948901F8
:100060000C9489010C9489010C9489010C948901E8
:100070000C9489010C9489010C9489010C948901D8
:100080000C9489010C9489010C948901EB07EE070B
:10009000E207DC07F107DF07F107E507F107F107E2
:1000A000F107F107F107F107F107F107F107F10790
:1000B000F107F107F107F107F107F107F107F10780
:1000C000F107F107F107F107F107F107F107F10770
:1000D000F107F107F107F107F107F107F107F10760
:1000E000F107F107F107F107F107F107F107F10750
:1000F000F107F107F107F107E80705A84CCDB2D4E5
:100100004EB93836A9020C50B9918688083CA6AA87
:10011000AA2ABE000000803F07634236B79BD8A7DB
:100120001A39685618AEBAAB558C1D3CB7CC57631C
:10013000BD6DEDFD753EF6177231BF000000803FCA
:1001400008000000BE922449123EABAAAA2ABECDE6
:10015000CCCC4C3E00000080BEABAAAAAA3E000058
:100160000000BF000000803F000000000008417850
:10017000D3BB4387D1133D190E3CC3BD4282AD2B87
:100180003E68EC8276BED98FE1A93E4C80EFFFBE7F
:1001900001C4FF7F3F00000000006E616E00696EC9
:1001A00066004E414E494E495459494E46CDCCCC3D
:1001B0003D0AD7233C17B7D13877CC2B329595E63B
:1001C000241FB14F0A000020410000C84200401C1B
:1001D0004620BCBE4CCA1B0E5AAEC59D7400407A68
:1001E00010F35A00A0724E18090010A5D4E80000C0
:1001F000E87648170000E40B54020000CA9A3B005E
:100200000000E1F505000080969800000040420FD4
:10021000000000A08601000000102700000000E898
:1002200003000000006400000000000A000000005D
:10023000000100000000002C76D888DC674F0823FE
:10024000DFC1DFAE59E1B1B796E5E3E453C63AE664
:1002500051997696E8E6C28426EB898C9B62ED4044
:100260007C6FFCEFBC9C9F40F2BAA56FA5F4900593
:100270005A2AF75C936B6CF9676DC11BFCE0E40DC7
:1002800047FEF520E6B500D0ED902E0300943577BB
:10029000050080841E080000204E0A000000C80CE3
:1002A000333333330F986E12831141EF8D2114894C
:1002B0003BE65516CFFEE6DB18D1844B381BF77CA6
:1002C0001D901DA4BBE424203284725E228100C9EB
:1002D000F124ECA1E53D270011241FBECFEFD0E1B2
:1002E000DEBFCDBF11E0A0E0B1E0E0EFF9E402C075
:1002F00005900D92AC37B107D9F721E0ACE7B1E03A
:1003000001C01D92A03FB207E1F70E945F150C9457
:10031000F6240C940000CF93DF931F92CDB7DEB785
:10032000898381E09981963009F480E0882F90E0FC
:100330000F90DF91CF910895CF93DF931F92CDB7A8
:10034000DEB789838981863019F483E090E01DC08F
:100350008981833019F08981893019F482E090E035
:1003600014C08981843019F08981853019F481E0C5
:1003700090E00BC08981813019F08981823019F4B5
:1003800080E090E002C08FEF9FEF0F90DF91CF9160
:1003900008950F931F93CF93DF93CDB7DEB76F9779
:1003A0000FB6F894DEBF0FBECDBF9F8B8E8B798FBB
:1003B000688F5B8F4A8F3D8F2C8F1F8F0E8F81E050
:1003C00090E09A8389830E94331798878F831C82D9
:1003D0001B821E821D8212C18B819C81880F991FF6
:1003E0002E893F89820F931FFC01808191819A871A
:1003F000898789859A85FC0182898B878B850E94F4
:10040000B70A892B09F46FC02CC02D813E818C8DD9
:100410009D8D2817390718F01A82198253C0198A3E
:10042000188A9E01205F3F4F8F819885B9010E94F5
:100430009517892B21F41A821982000043C08D81FF
:100440009E819C012F5F3F4F3E832D83880F991F14
:100450002A8D3B8D820F931F28893989FC013183B6
:1004600020838F819885FC0182819381892B51F1B2
:100470008B850E948B01892B81F08B850E949C01CA
:100480008C018F8198850E94D717FC0182890E9478
:100490009C01801791070CF0B8CF8B850E948B01CF
:1004A000892B81F48B850E949C018C018F8198851A
:1004B0000E94D717FC0182890E949C010817190726
:1004C0000CF4A3CF29853A858F819885B9010E94C4
:1004D00055179F878E878E859F85892B09F089C048
:1004E0001A8219829AC08B85873089F429853A85CA
:1004F0008F819885B9010E9455179D878C878C85BF
:100500009D85892B09F075C01A82198286C08B855A
:10051000883009F051C02BC01B8A1A8A9E012E5EBA
:100520003F4F8F819885B9010E949517892B51F013
:100530008C8D9D8D9C01215031098D819E8182176A
:10054000930718F01A82198221C08D819E819C0127
:100550002F5F3F4F3E832D83880F991F2A8D3B8D40
:10056000820F931F2A893B89FC01318320838F816D
:100570009885FC0182819381892B41F08F81988538
:100580000E94D717FC018289873031F68F819885C8
:10059000FC0182819381892B61F11D8A1C8A9E0155
:1005A0002C5E3F4F8F819885B9010E949517892B4A
:1005B00001F51A8219824EC02D813E818C8D9D8D50
:1005C0002817390798F48D819E819C012F5F3F4F3A
:1005D0003E832D83880F991F2A8D3B8D820F931F99
:1005E00029853A85FC013183208303C01A82198250
:1005F00014C08B819C8101969C838B832B813C81D1
:10060000888D998D2817390728F52D813E818C8D8D
:100610009D8D2817390708F4DFCE1CC02D813E813F
:100620008C8D9D8D2817390718F01A82198219C0F0
:100630008D819E819C012F5F3F4F3E832D83880FCC
:10064000991F2A8D3B8D280F391F8F819885B901FD
:100650000E9495178F819885FC0182819381892B57
:10066000E9F62D813E818E8D9F8DFC0131832083A3
:100670008F8198850E94F72018861F8289819A8130
:100680006F960FB6F894DEBF0FBECDBFDF91CF914E
:100690001F910F910895EF92FF920F931F93CF93A5
:1006A000DF93CDB7DEB7CD55D1090FB6F894DEBFD5
:1006B0000FBECDBF9E01285A3F4FF9019183808321
:1006C000CE01865A9F4FFC0171836083CE01845A0C
:1006D0009F4FFC01518340830DB71EB781E090E02E
:1006E0009A8389830E9433179E878D871C821B8281
:1006F00045C28B819C81880F991F9E01285A3F4FCC
:10070000F90120813181820F931FFC018081918149
:10071000988B8F878F859889FC018289898B89893D
:10072000882341F42F8538898D859E85B9010E94E3
:1007300055171FC28989833021F08989893009F0D2
:1007400070C08D859E850E94D7179DA38CA31EA681
:100750001FA618AA19AAAE01425D5F4F2CA13DA1A8
:100760008F859889B9010E949C069FA38EA38EA1B4
:100770009FA1892B19F41A8219820CC28EA59FA5FC
:10078000A8A9B9A92B2F2F932A2F2F93292F2F9365
:100790008F9386E091E0892F8F9386E091E08F938D
:1007A0001F9280E18F93CE01C296292F2F938F93B2
:1007B0000E9429242DB73EB7265F3F4F0FB6F8940D
:1007C0003EBF0FBE2DBF99A788A71E821D8216C0EF
:1007D0009E012E5C3F4F8D819E81820F931FFC01F5
:1007E00040812CA13DA18D819E81820F931FFC0130
:1007F00040838D819E8101969E838D832D813E81D4
:1008000088A599A5281739071CF328A539A58CA117
:100810009DA1FC01318B208B8CA19DA1FC01128A32
:10082000A8C189890E94B70A892B09F4A2C18DB792
:100830009EB77C01CE018E5B9F4FFC01118210821E
:10084000CE018C5B9F4FFC01118210829E012E5BBA
:100850003F4F8D859E85B9010E9495179E012C5BA7
:100860003F4F8D859E85B9010E949517CE018E5B05
:100870009F4FFC0180819181FC01808991890196C3
:100880009C01215031093B8B2A8B2DB73EB7281B89
:10089000390B0FB6F8943EBF0FBE2DBF8DB79EB774
:1008A00001969D8B8C8BCE018C5B9F4FFC018081D0
:1008B0009181FC018089918901969C012150310927
:1008C0003F8B2E8B2DB73EB7281B390B0FB6F894F4
:1008D0003EBF0FBE2DBF8DB79EB70196998F888FF3
:1008E000CE018E5B9F4FFC0180819181FC0180894C
:1008F00091892C893D89820F931FFC011082CE01C2
:100900008C5B9F4FFC0180819181FC0180899189E2
:10091000288D398D820F931FFC011082CE018E5BD2
:100920009F4FFC0180819181FC0120893189CE019A
:100930008E5B9F4FFC0180819181BC018C899D89D8
:10094000A9010E94D223CE018C5B9F4FFC018081C4
:100950009181FC0120893189CE018C5B9F4FFC0184
:1009600080819181BC01888D998DA9010E94D2233B
:100970008C899D8960E070E00E948021DC01CB01C0
:100980008A8F9B8FAC8FBD8F888D998D60E070E0D2
:100990000E948021DC01CB018E8F9F8FA8A3B9A379
:1009A0001F82188619861A868989813089F42E8DCE
:1009B0003F8D48A159A16A8D7B8D8C8D9D8D0E94A4
:1009C0003D18DC01CB018F839887A987BA8761C066
:1009D0008989823089F42A8D3B8D4C8D5D8D6E8D99
:1009E0007F8D88A199A10E943C18DC01CB018F83E7
:1009F0009887A987BA874DC08989843089F42E8D5C
:100A00003F8D48A159A16A8D7B8D8C8D9D8D0E9453
:100A10000D1ADC01CB018F839887A987BA8739C06B
:100A20008989853009F520E030E0A9016A8D7B8D48
:100A30008C8D9D8D0E94A918882329F41A82198211
:100A400080E090E08FC02A8D3B8D4C8D5D8D6E8D4A
:100A50007F8D88A199A10E94B318DC01CB018F83FF
:100A60009887A987BA8715C08989863091F42A8D1D
:100A70003B8D4C8D5D8D8E8D9F8DA8A1B9A1BC0144
:100A8000CD010E947A1ADC01CB018F839887A98758
:100A9000BA878A858F9389858F9388858F938F8175
:100AA0008F9386E091E0892F8F9386E091E08F937A
:100AB0001F9280E18F93CE018A5B9F4F292F2F9346
:100AC0008F930E9429242DB73EB7265F3F4F0FB664
:100AD000F8943EBF0FBE2DBF9BA38AA31C861B8626
:100AE0001AC0CE018E5B9F4FFC0120813181AE0187
:100AF0004A5B5F4F8B859C85840F951FFC0140816D
:100B00008B859C85820F931FFC0140838B859C8580
:100B100001969C878B872B853C858AA19BA12817F2
:100B20003907FCF2CE018E5B9F4FFC0180819181E1
:100B30002AA13BA1FC01318B208BCE018E5B9F4F04
:100B4000FC0180819181FC01128ACE018E5B9F4F56
:100B5000FC01208131818D859E85B9010E94551748
:100B600081E090E00FB6F894FEBE0FBEEDBE019797
:100B700089F48B819C8101969C838B832B813C81A2
:100B8000CE01865A9F4FFC01808191812817390739
:100B900008F4AFCD8D859E85FC0182819381892BE0
:100BA00009F46AC08DB79EB77C01CE018A5A9F4F67
:100BB000FC01118210829E012A5A3F4F8D859E852D
:100BC000B9010E949517CE018A5A9F4FFC0180817E
:100BD0009181FC018089918901969C012150310904
:100BE0003BA72AA72DB73EB7281B390B0FB6F894A1
:100BF0003EBF0FBE2DBF8DB79EB701969DA78CA798
:100C0000CE018A5A9F4FFC0180819181FC0180892D
:100C100091892CA53DA5820F931FFC011082CE0166
:100C20008A5A9F4FFC0180819181FC012089318982
:100C3000CE018A5A9F4FFC0180819181BC018CA515
:100C40009DA5A9010E94D2238CA59DA560E070E01E
:100C50000E948021DC01CB019E01245A3F4FF90103
:100C600020813181F90180839183A283B3830FB600
:100C7000F894FEBE0FBEEDBE8D859E850E94F720C6
:100C80001E861D8689819A810FB6F8941EBF0FBEFD
:100C90000DBFC35ADF4F0FB6F894DEBF0FBECDBFF6
:100CA000DF91CF911F910F91FF90EF900895CF9317
:100CB000DF93CDB7DEB728970FB6F894DEBF0FBE2F
:100CC000CDBF9C838B837E836D8358874F831A822D
:100CD000198205C089819A8101969A838983298125
:100CE0003A818F8198852817390794F489819A81F0
:100CF0002B813C81820F931FFC01408189819A8165
:100D00002D813E81820F931FFC018081481711F3D2
:100D100041E029813A818F819885281739070CF4A1
:100D200040E0842F90E028960FB6F894DEBF0FBE07
:100D3000CDBFDF91CF910895EF92FF920F931F9354
:100D4000CF93DF93CDB7DEB762970FB6F894DEBFCF
:100D50000FBECDBF9E878D87788B6F875A8B498B4F
:100D60000DB71EB78DB79EB77C018F859889FC01A2
:100D7000808991899A8389838F859889FC018089EC
:100D8000918901962DB73EB7281B390B0FB6F89401
:100D90003EBF0FBE2DBF8DB79EB701969C838B8340
:100DA0008F859889FC01808991892B813C81820FF4
:100DB000931FFC0110828F859889FC01408951891D
:100DC0002F8538898B819C81B9010E94D2238B8128
:100DD0009C8160E070E00E948021DC01CB018D836A
:100DE0009E83AF83B8878D859E85FC018289833081
:100DF00069F48D819E81AF81B885B05829893A897F
:100E0000F90180839183A283B38377C08D859E850A
:100E1000FC018289893019F080E090E070C08D85F6
:100E20009E859A8789878D859E85FC018089918919
:100E30009C878B878B859C850497E1F489859A85AF
:100E400044E050E069E071E00E945706892B91F080
:100E50008D819E81AF81B885BC01CD010E94D81AD9
:100E6000DC01CB0129893A89F90180839183A2832E
:100E7000B38343C08B859C850397E1F489859A856C
:100E800043E050E06EE071E00E945706892B91F03C
:100E90008D819E81AF81B885BC01CD010E94CA1AA7
:100EA000DC01CB0129893A89F90180839183A283EE
:100EB000B38323C08B859C850397E1F489859A854C
:100EC00043E050E062E171E00E945706892B91F007
:100ED0008D819E81AF81B885BC01CD010E94AE1885
:100EE000DC01CB0129893A89F90180839183A283AE
:100EF000B38303C080E090E002C081E090E00FB6D1
:100F0000F894FEBE0FBEEDBE0FB6F8941EBF0FBE26
:100F10000DBF62960FB6F894DEBF0FBECDBFDF9156
:100F2000CF911F910F91FF90EF9008950F931F9312
:100F3000CF93DF93CDB7DEB761970FB6F894DEBFDE
:100F40000FBECDBF9B878A877D876C875F874E8763
:100F5000398B288B8FEF9FEF9A8389838AE08B836D
:100F60001D821C821F821E82E1C08E819F812A8584
:100F70003B85820F931FFC018081888788858032A2
:100F800009F4CEC088858C3211F48EE2888788857A
:100F9000882F90E0092E000CAA0BBB0B48E250E012
:100FA00026E330E0841B950B28173907D0F08A5BC5
:100FB0009F4FFC010C94222081E0898714C082E0BD
:100FC000898711C084E089870EC085E089870BC0BE
:100FD00086E0898708C087E0898705C088E089871F
:100FE00002C08AE0898789858A3059F488858033F0
:100FF00018F088858A3318F088858E3211F41986A6
:1010000017C089858A3019F489E0898711C08985DC
:10101000823071F48B818A3049F08B81873031F0D6
:101020008B81843019F08B81853011F483E08987BE
:101030008985882319F48B81882341F1898589303A
:1010400019F48B81893011F189819A8101969A83F3
:1010500089831D821C8229813A818E859F8528176C
:10106000390788F489819A81880F991F2C853D85DD
:101070008901080F191F83E190E00E945F20F801A9
:101080009183808303C080E090E068C089819A8169
:10109000880F991F2C853D85820F931FFC0180814D
:1010A0009181892BD1F189819A81880F991F2C8593
:1010B0003D85820F931FFC01808191812985FC0170
:1010C000228B89819A81880F991F2C853D85820FFB
:1010D000931FFC01808191812C813D812F5F3F4FC7
:1010E000FC01318B208B89819A81880F991F2C8577
:1010F0003D85820F931FFC01208131818C819D8170
:10110000AC014F5F5F4F5D834C83820F931F288537
:10111000FC01208389858B8304C080E090E01EC0A1
:1011200000008E819F8101969F838E838E819F8197
:101130002A853B85820F931FFC018081882F90E0D8
:10114000892B09F012CF89819A8101969C018889A7
:101150009989FC013183208381E090E061960FB68C
:10116000F894DEBF0FBECDBFDF91CF911F910F91DD
:101170000895CF93DF93CDB7DEB780917C01909136
:101180007D01A0917E01B0917F01BC01CD01DF9175
:10119000CF910895CF93DF9300D000D0CDB7DEB7C5
:1011A00069837A838B839C8389819A81AB81BC819B
:1011B00080937C0190937D01A0937E01B0937F0189
:1011C00000000F900F900F900F90DF91CF91089536
:1011D000CF93DF93CDB7DEB728970FB6F894DEBF75
:1011E0000FBECDBF9C838B837E836D8358874F83D7
:1011F0001A82198205C089819A8101969A8389830E
:1012000029813A818F8198852817390794F489813B
:101210009A812B813C81820F931FFC01408189813F
:101220009A812D813E81820F931FFC018081481796
:1012300011F341E029813A818F8198852817390778
:101240000CF440E0842F90E028960FB6F894DEBFAF
:101250000FBECDBFDF91CF910895CF93DF93CDB770
:10126000DEB760970FB6F894DEBF0FBECDBF9E8786
:101270008D87788B6F871A82198267C189819A81DD
:10128000880F991F2D853E85820F931FFC01808159
:101290009181FC018289893009F052C189819A814A
:1012A000880F991F2D853E85820F931FFC01808139
:1012B0009181FC0180899189019709F05AC0898147
:1012C0009A81880F991F2D853E85820F931FFC01FF
:1012D00080819181FC018081853609F04AC0898135
:1012E0009A81880F991F2D853E85820F931FFC01DF
:1012F00080819181FC01128A89819A81880F991FCE
:101300002D853E85820F931FFC01808191819C0178
:1013100080E48F938DE28F9388EF8F9384E58F9392
:1013200086E191E0892F8F9386E191E08F93832F5F
:101330008F93822F8F930E9459242DB73EB7285F39
:101340003F4F0FB6F894DEBF0FBECDBF9C838B839B
:1013500089819A81880F991F2D853E85820F931F61
:10136000FC01808191812B813C81FC01318B208BA0
:10137000E7C089819A81880F991F2D853E85820F4C
:10138000931FFC0180819181FC01808991890297E2
:1013900009F05FC089819A81880F991F2D853E854C
:1013A000820F931FFC018081918142E050E0BC01DB
:1013B00089E191E00E94E808892B09F44AC08981FB
:1013C0009A81880F991F2D853E85820F931FFC01FE
:1013D00080819181FC01128A89819A81880F991FED
:1013E0002D853E85820F931FFC01808191819C0198
:1013F00080E48F9389E48F938FE08F938BED8F93AD
:1014000086E191E0892F8F9386E191E08F93832F7E
:101410008F93822F8F930E9459242DB73EB7285F58
:101420003F4F0FB6F894DEBF0FBECDBF9E838D83B6
:1014300089819A81880F991F2D853E85820F931F80
:10144000FC01808191812D813E81FC01318B208BBB
:1014500077C089819A81880F991F2D853E85820FDB
:10146000931FFC0180819181FC0180899189039700
:1014700009F066C089819A81880F991F2D853E8564
:10148000820F931FFC018081918143E050E0BC01F9
:101490008CE191E00E94E808892B09F451C0898110
:1014A0009A81880F991F2D853E85820F931FFC011D
:1014B00080819181FC01128A0E94B908DC01CB0174
:1014C0008F839887A987BA8789819A81880F991F06
:1014D0002D853E85820F931FFC01808191819C01A7
:1014E0008A858F9389858F9388858F938F818F933A
:1014F00086E191E0892F8F9386E191E08F93832F8E
:101500008F93822F8F930E9459242DB73EB7285F67
:101510003F4F0FB6F894DEBF0FBECDBF9C878B87C1
:1015200089819A81880F991F2D853E85820F931F8F
:10153000FC01808191812B853C85FC01318B208BC6
:1015400089819A8101969A83898329813A818F853D
:1015500098892817390708F491CE000060960FB6D5
:10156000F894DEBF0FBECDBFDF91CF910895CF932A
:10157000DF931F92CDB7DEB789838981813091F0E7
:101580008981823079F08981833061F0898184306A
:1015900049F08981853031F08981863019F089815F
:1015A000893019F481E090E002C080E090E00F9073
:1015B000DF91CF910895CF93DF93CDB7DEB72E970C
:1015C0000FB6F894DEBF0FBECDBF9C878B877E879A
:1015D0006D871A8219828AE08B831D821C829CC0CF
:1015E0008C819D81880F991F2B853C85820F931FCD
:1015F000FC0180819181FC0182898A878A858730FC
:1016000031F489819A8101969A8389837EC08A8583
:10161000883031F489819A8101979A83898375C0D2
:101620008A85873031F48B81883019F480E090E02E
:1016300083C08A85882331F48B81882319F480E064
:1016400090E07AC08A850E94B70A892B89F08B8145
:101650000E94B70A892B61F08A85833049F48B8117
:10166000843031F08B81853019F080E090E064C0E7
:101670008B81873059F48A850E94B70A892B31F013
:101680008A85833019F080E090E056C08A858823EF
:10169000E1F51F821E821986188624C08C819D81E7
:1016A000880F991F2B853C85820F931FFC01208199
:1016B000318188859985820F931FFC0180818E324C
:1016C00029F48E819F8101969F838E838E819F81D5
:1016D00002971CF080E090E02FC0888599850196E4
:1016E000998788878C819D81880F991F2B853C85E0
:1016F000820F931FFC0180819181FC012089318937
:10170000888599858217930748F28A858B838C8117
:101710009D8101969D838C832C813D818D859E8545
:101720002817390708F45CCF21E089819A81892B39
:1017300009F020E0822F90E02E960FB6F894DEBFDD
:101740000FBECDBFDF91CF910895CF93DF93CDB77B
:10175000DEB7C054D1090FB6F894DEBF0FBECDBFBF
:1017600082E690E022E630E0F90120812860FC0169
:10177000208380E090E0A0E0B0E489839A83AB838B
:10178000BC832BEA3AEA4AE250E469817A818B8190
:101790009C810E940D1ADC01CB018DA39EA3AFA3F7
:1017A000B8A789819A81AB81BC819C01AD01BC0144
:1017B000CD010E943D18DC01CB0189A79AA7ABA7F8
:1017C000BCA720E030E040E85FE36DA17EA18FA1DF
:1017D00098A50E94A91888231CF481E08DA7B2C0A7
:1017E00020E03FEF4FE757E469A57AA58BA59CA5BC
:1017F0000E94081A18160CF07BC020E030E04AE77F
:1018000054E469817A818B819C810E94B318DC0148
:10181000CB018EA79FA7A8ABB9AB20E030E04AEF81
:1018200054E46EA57FA588A999A90E940D1ADC0130
:10183000CB018AAB9BABACABBDAB20E030E040E86A
:101840005FE36AA97BA98CA99DA90E94A918882396
:101850002CF481E090E09FAB8EAB3FC020E03FEFE7
:101860004FE757E46AA97BA98CA99DA90E94081A91
:1018700018164CF520E030E040E251E46EA57FA55B
:1018800088A999A90E940D1ADC01CB01BC01CD01E8
:101890000E942519DC01CB019FAB8EAB0FC088ECF9
:1018A00090E099AF88AF88AD99AD0197F1F799AF06
:1018B00088AF8EA99FA901979FAB8EAB8EA99FA9D8
:1018C000892B69F73FC06AA97BA98CA99DA90E94B1
:1018D0002519DC01CB019FAB8EAB8EA99FA99BAFD5
:1018E0008AAF8AAD9BAD0197F1F79BAF8AAF2AC053
:1018F00020E030E04FE753E46DA17EA18FA198A5D1
:101900000E94081A1816ACF469A57AA58BA59CA5A7
:101910000E942519DC01CB019DAF8CAF8CAD9DAD34
:101920009FAF8EAF8EAD9FAD0197F1F79FAF8EAF9A
:101930001CC06DA17EA18FA198A50E942519DC0174
:10194000CB018DA72DA5CE01805C9F4FFC0120838C
:10195000CE01805C9F4FFC018081282F2A95F1F7F2
:10196000CE01805C9F4FFC01208382E690E022E65E
:1019700030E0F9012081277FFC01208380E090E0A6
:10198000A0E0B0E48D839E83AF83B8872BEA3AEA68
:101990004AE250E46D817E818F8198850E940D1A04
:1019A000DC01CB0189879A87AB87BC878D819E81BB
:1019B000AF81B8859C01AD01BC01CD010E943D18ED
:1019C000DC01CB018D879E87AF87B88B20E030E0AC
:1019D00040E85FE369857A858B859C850E94A9181C
:1019E00088231CF481E0898BB2C020E03FEF4FE7F1
:1019F00057E46D857E858F8598890E94081A181690
:101A00000CF07BC020E030E04AE754E46D817E8139
:101A10008F8198850E94B318DC01CB018A8B9B8B48
:101A2000AC8BBD8B20E030E04AEF54E46A897B89BF
:101A30008C899D890E940D1ADC01CB018E8B9F8BB6
:101A4000A88FB98F20E030E040E85FE36E897F899E
:101A5000888D998D0E94A91888232CF481E090E04C
:101A60009B8F8A8F3FC020E03FEF4FE757E46E899E
:101A70007F89888D998D0E94081A18164CF520E0F0
:101A800030E040E251E46A897B898C899D890E941B
:101A90000D1ADC01CB01BC01CD010E942519DC012E
:101AA000CB019B8F8A8F0FC088EC90E09D8F8C8F2D
:101AB0008C8D9D8D0197F1F79D8F8C8F8A8D9B8DDD
:101AC00001979B8F8A8F8A8D9B8D892B69F73FC0E9
:101AD0006E897F89888D998D0E942519DC01CB0143
:101AE0009B8F8A8F8A8D9B8D9F8F8E8F8E8D9F8DE2
:101AF0000197F1F79F8F8E8F2AC020E030E04FE7EB
:101B000053E469857A858B859C850E94081A18168E
:101B1000ACF46D857E858F8598890E942519DC013E
:101B2000CB0199A388A388A199A19BA38AA38AA189
:101B30009BA10197F1F79BA38AA30FC069857A85C2
:101B40008B859C850E942519DC01CB01898B8989B5
:101B50008CA38CA18A95F1F78CA30000C05CDF4FA9
:101B60000FB6F894DEBF0FBECDBFDF91CF910895C1
:101B70000F931F93CF93DF93CDB7DEB7C158D10931
:101B80000FB6F894DEBF0FBECDBF82E290E022E236
:101B900030E0F90120812F77FC01208382E690E07C
:101BA00022E630E0F90120812D7FFC01208382E6CE
:101BB00090E022E630E0F90120812460FC012083DE
:101BC000198282E690E022E630E0F9012081286067
:101BD000FC01208380E090E0A0E8BFE38A839B8340
:101BE000AC83BD838E010A591F4F2BEA3AEA4AE2C1
:101BF00050E46A817B818C819D810E940D1ADC01F9
:101C0000CB01F80180839183A283B3838E010659AF
:101C10001F4F8A819B81AC81BD819C01AD01BC01BC
:101C2000CD010E943D18DC01CB01F8018083918336
:101C3000A283B383CE018A599F4F20E030E040E871
:101C40005FE3FC0160817181828193810E94A91808
:101C500088233CF4CE0182599F4F21E0FC01208370
:101C60002CC1CE0186599F4F20E03FEF4FE757E44C
:101C7000FC0160817181828193810E94081A18168B
:101C80000CF0CDC020E030E04AE754E46A817B816B
:101C90008C819D810E94B318DC01CB019E012159EA
:101CA0003F4FF90180839183A283B3838E010D5846
:101CB0001F4FCE0181599F4F20E030E04AEF54E49E
:101CC000FC0160817181828193810E940D1ADC0187
:101CD000CB01F80180839183A283B383CE018D5819
:101CE0009F4F20E030E040E85FE3FC0160817181BC
:101CF000828193810E94A91888234CF4CE018958CF
:101D00009F4F21E030E0FC01318320836DC0CE0184
:101D10008D589F4F20E03FEF4FE757E4FC01608173
:101D20007181828193810E94081A18160CF04AC0B2
:101D3000CE0181599F4F20E030E040E251E4FC01A8
:101D400060817181828193810E940D1ADC01CB0137
:101D50008E0109581F4FBC01CD010E942519DC01DD
:101D6000CB01F8019183808324C0CE0187589F4F17
:101D700028EC30E0FC0131832083CE0187589F4F4F
:101D8000FC01808191810197F1F79E0127583F4F17
:101D9000F90191838083CE0189589F4F9E01295874
:101DA0003F4FF9012081318121503109FC013183FC
:101DB0002083CE0189589F4FFC0180819181892B1E
:101DC000A1F67BC08E0109581F4FCE018D589F4F41
:101DD000FC0160817181828193810E942519DC015F
:101DE000CB01F80191838083CE0185589F4F9E01DE
:101DF00029583F4FF90120813181FC013183208333
:101E0000CE0185589F4FFC01808191810197F1F7A8
:101E10009E0125583F4FF901918380834EC0CE012A
:101E20008A599F4F20E030E04FE753E4FC01608186
:101E30007181828193810E94081A18166CF58E01B7
:101E400003581F4FCE0186599F4FFC01608171815D
:101E5000828193810E942519DC01CB01F8019183D5
:101E60008083CE0181589F4F9E0123583F4FF90137
:101E700020813181FC0131832083CE0181589F4F25
:101E8000FC01808191810197F1F79E0121583F4F1C
:101E9000F9019183808328C08E0102591F4FCE0122
:101EA0008A599F4FFC0160817181828193810E94D8
:101EB0002519DC01CB01F8018083CE018F579F4F9C
:101EC0009E0122593F4FF9012081FC012083CE0160
:101ED0008F579F4FFC018081282F2A95F1F7CE0163
:101EE0008F579F4FFC01208381E290E0FC018081AD
:101EF0008078898382E690E022E630E0F901208153
:101F0000277FFC01208380E090E0A0E8BFE38E8380
:101F10009F83A887B9878E01065B1F4F2BEA3AEA99
:101F20004AE250E46E817F81888599850E940D1A6E
:101F3000DC01CB01F80180839183A283B3838E01FE
:101F4000025B1F4F8E819F81A885B9859C01AD01E1
:101F5000BC01CD010E943D18DC01CB01F80180835A
:101F60009183A283B383CE01865B9F4F20E030E054
:101F700040E85FE3FC0160817181828193810E946E
:101F8000A91888233CF4CE018E5A9F4F21E0FC0112
:101F900020832CC1CE01825B9F4F20E03FEF4FE7B3
:101FA00057E4FC0160817181828193810E94081A4B
:101FB00018160CF0CDC020E030E04AE754E46E8102
:101FC0007F81888599850E94B318DC01CB019E0131
:101FD0002D5A3F4FF90180839183A283B3838E01F1
:101FE000095A1F4FCE018D5A9F4F20E030E04AEF33
:101FF00054E4FC0160817181828193810E940D1AF9
:10200000DC01CB01F80180839183A283B383CE01ED
:10201000895A9F4F20E030E040E85FE3FC01608197
:102020007181828193810E94A91888234CF4CE018A
:10203000855A9F4F21E030E0FC01318320836DC041
:10204000CE01895A9F4F20E03FEF4FE757E4FC0154
:1020500060817181828193810E94081A18160CF0A8
:102060004AC0CE018D5A9F4F20E030E040E251E45B
:10207000FC0160817181828193810E940D1ADC01D3
:10208000CB018E01055A1F4FBC01CD010E942519BD
:10209000DC01CB01F8019183808324C0CE01835AF7
:1020A0009F4F28EC30E0FC0131832083CE01835A1E
:1020B0009F4FFC01808191810197F1F79E01235A86
:1020C0003F4FF90191838083CE01855A9F4F9E0136
:1020D000255A3F4FF9012081318121503109FC01FE
:1020E00031832083CE01855A9F4FFC0180819181ED
:1020F000892BA1F67BC08E01055A1F4FCE01895A4C
:102100009F4FFC0160817181828193810E9425191A
:10211000DC01CB01F80191838083CE01815A9F4F6E
:102120009E01255A3F4FF90120813181FC01318305
:102130002083CE01815A9F4FFC01808191810197BC
:10214000F1F79E01215A3F4FF901918380834EC0E0
:10215000CE01865B9F4F20E030E04FE753E4FC0167
:1021600060817181828193810E94081A18166CF532
:102170008E010F591F4FCE01825B9F4FFC01608182
:102180007181828193810E942519DC01CB01F801C4
:1021900091838083CE018D599F4F9E012F593F4FD0
:1021A000F90120813181FC0131832083CE018D59D9
:1021B0009F4FFC01808191810197F1F79E012D597C
:1021C0003F4FF9019183808328C08E010E5A1F4F23
:1021D000CE01865B9F4FFC0160817181828193817A
:1021E0000E942519DC01CB01F8018083CE018B59B7
:1021F0009F4F9E012E5A3F4FF9012081FC01208301
:10220000CE018B599F4FFC018081282F2A95F1F731
:10221000CE018B599F4FFC01208382E690E022E69D
:1022200030E0F90120812860FC01208380E090E00B
:10223000A0E8BFE38A879B87AC87BD872BEA3AEA91
:102240004AE250E46A857B858C859D850E940D1A43
:10225000DC01CB018EA79FA7A8ABB9AB8A859B8574
:10226000AC85BD859C01AD01BC01CD010E943D182E
:10227000DC01CB018AAB9BABACABBDAB20E030E06B
:1022800040E85FE36EA57FA588A999A90E94A918D7
:1022900088231CF481E08EABF9C020E03FEF4FE7CC
:1022A00057E46AA97BA98CA99DA90E94081A18164F
:1022B0000CF0AEC020E030E04AE754E46A857B854C
:1022C0008C859D850E94B318DC01CB018FAB98AF44
:1022D000A9AFBAAF20E030E04AEF54E46FA978AD7F
:1022E00089AD9AAD0E940D1ADC01CB018BAF9CAF7A
:1022F000ADAFBEAF20E030E040E85FE36BAD7CAD5A
:102300008DAD9EAD0E94A918882344F421E030E0F1
:10231000CE01CF96FC01318320835FC020E03FEFE8
:102320004FE757E46BAD7CAD8DAD9EAD0E94081AB2
:1023300018160CF044C020E030E040E251E46FA9F0
:1023400078AD89AD9AAD0E940D1ADC01CB01BC01BC
:10235000CD010E942519DC01CB019E01215C3F4F7C
:10236000F9019183808323C0CE018F5B9F4F28ECBE
:1023700030E0FC0131832083CE018F5B9F4FFC0155
:10238000808191810197F1F79E012F5B3F4FF90109
:1023900091838083CE01CF96FC01808191819C0145
:1023A00021503109CE01CF96FC0131832083CE012B
:1023B000CF96FC0180819181892BB1F667C06BAD0E
:1023C0007CAD8DAD9EAD0E942519DC01CB019E0137
:1023D000215C3F4FF90191838083CE018D5B9F4F3C
:1023E0009E01215C3F4FF90120813181FC01318345
:1023F0002083CE018D5B9F4FFC01808191810197ED
:10240000F1F79E012D5B3F4FF901918380833EC020
:1024100020E030E04FE753E46EA57FA588A999A995
:102420000E94081A18164CF58E010B5B1F4F6AA903
:102430007BA98CA99DA90E942519DC01CB01F8017B
:1024400091838083CE01895B9F4F9E012B5B3F4F21
:10245000F90120813181FC0131832083CE01895B28
:102460009F4FFC01808191810197F1F79E01295BCB
:102470003F4FF901918380831CC06EA57FA588A979
:1024800099A90E942519DC01CB018EABCE01875B97
:102490009F4F2EA9FC012083CE01875B9F4FFC013B
:1024A0008081282F2A95F1F7CE01875B9F4FFC0191
:1024B000208382E690E022E630E0F9012081277F48
:1024C000FC01208380E090E0A0E8BFE38E879F8737
:1024D000A88BB98B2BEA3AEA4AE250E46E857F85F5
:1024E000888999890E940D1ADC01CB018A8B9B8B0C
:1024F000AC8BBD8B8E859F85A889B9899C01AD0168
:10250000BC01CD010E943D18DC01CB018E8B9F8B5D
:10251000A88FB98F20E030E040E85FE36A897B89CB
:102520008C899D890E94A91888231CF481E08A8FD8
:10253000B2C020E03FEF4FE757E46E897F89888D76
:10254000998D0E94081A18160CF07BC020E030E02C
:102550004AE754E46E857F85888999890E94B3187B
:10256000DC01CB018B8F9C8FAD8FBE8F20E030E0E4
:102570004AEF54E46B8D7C8D8D8D9E8D0E940D1ADB
:10258000DC01CB018F8F98A3A9A3BAA320E030E090
:1025900040E85FE36F8D78A189A19AA10E94A918F4
:1025A00088232CF481E090E09CA38BA33FC020E023
:1025B0003FEF4FE757E46F8D78A189A19AA10E9460
:1025C000081A18164CF520E030E040E251E46B8D1B
:1025D0007C8D8D8D9E8D0E940D1ADC01CB01BC017E
:1025E000CD010E942519DC01CB019CA38BA30FC058
:1025F00088EC90E09EA38DA38DA19EA10197F1F799
:102600009EA38DA38BA19CA101979CA38BA38BA1BF
:102610009CA1892B69F73FC06F8D78A189A19AA1F0
:102620000E942519DC01CB019CA38BA38BA19CA14B
:1026300098A78FA38FA198A50197F1F798A78FA3CB
:102640002AC020E030E04FE753E46A897B898C8917
:102650009D890E94081A1816ACF46E897F89888DAE
:10266000998D0E942519DC01CB019AA789A789A51C
:102670009AA59CA78BA78BA59CA50197F1F79CA772
:102680008BA70FC06A897B898C899D890E94251937
:10269000DC01CB018A8F8A8D8DA78DA58A95F1F7F4
:1026A0008DA78981882309F08BCA82E690E022E613
:1026B00030E0F90120812B7FFC01208382E290E051
:1026C00022E230E0F90120812068FC012083000033
:1026D000CF57DF4F0FB6F894DEBF0FBECDBFDF91EF
:1026E000CF911F910F910895CF93DF931F92CDB794
:1026F000DEB789830E94B80D82E690E022E630E0E2
:10270000F90120812D7FFC01208382E690E022E602
:1027100030E0F90120812B7FFC01208382E690E0EC
:1027200022E630E0F9012081277FFC01208383E24B
:1027300090E023E230E0F90120812F70FC0120833A
:1027400083E290E023E230E0F9012081322F2981F9
:10275000207F232BFC0120830E94A50B83E290E0C5
:1027600023E230E0F90120812F70FC01208383E215
:1027700090E023E230E0F9012081422F2981222FCD
:1027800030E022953295307F3227207F3227242B6C
:10279000FC0120830E94A50B00000F90DF91CF91D8
:1027A0000895CF93DF931F92CDB7DEB789830E9440
:1027B000B80D82E690E022E630E0F9012081226047
:1027C000FC01208382E690E022E630E0F9012081DE
:1027D0002B7FFC01208382E690E022E630E0F901C5
:1027E0002081277FFC01208383E290E023E230E018
:1027F000F90120812F70FC01208383E290E023E225
:1028000030E0F9012081322F2981207F232BFC0128
:1028100020830E94A50B83E290E023E230E0F901DF
:1028200020812F70FC01208383E290E023E230E0DE
:10283000F9012081422F2981222F30E02295329503
:10284000307F3227207F3227242BFC0120830E94F7
:10285000A50B00000F90DF91CF910895CF93DF93E8
:10286000CDB7DEB782E290E022E230E0F9012081CC
:10287000206FFC01208381E690E021E630E0F90141
:1028800020812E60FC01208382E690E022E630E089
:10289000F90120812D7FFC01208382E690E022E671
:1028A00030E0F90120812D7FFC01208383E290E05C
:1028B00020E2FC0120830E94A50B0E94A50B0E9430
:1028C000A50B88E20E94741388E20E94741388E2C8
:1028D0000E94741382E00E94741381E00E947413BA
:1028E000109283011092820110928501109284014E
:1028F00010928701109286010E94881481E090E076
:1029000090938101809380010000DF91CF91089521
:10291000CF93DF93CDB7DEB7809182019091830191
:10292000880F991F880F991F282F28608091840194
:1029300090918501880F991F282B80918601909195
:102940008701822B0E9474130000DF91CF910895BC
:10295000CF93DF93CDB7DEB7809180019091810155
:10296000892B11F40E942E140000DF91CF9108955D
:10297000CF93DF93CDB7DEB70E94A81481E090E03B
:1029800090938301809382010E9488140000DF915C
:10299000CF910895CF93DF93CDB7DEB70E94A814EF
:1029A00081E00E9474130000DF91CF910895CF93CE
:1029B000DF9300D000D0CDB7DEB79C838B830E941D
:1029C000A8141A8219820FC089819A812B813C81B7
:1029D000820F931FFC0180810E94D11389819A810B
:1029E00001969A83898389819A812B813C81820F08
:1029F000931FFC018081882339F700000F900F900E
:102A00000F900F90DF91CF910895CF93DF93CDB7C3
:102A1000DEB783E390E0DF91CF910895CF93DF930A
:102A200000D0CDB7DEB79A83898380E990E0298111
:102A30003A81232F3327FC01208389E290E029810A
:102A4000FC0120838AE290E028E1FC01208385E9F3
:102A500090E02EE0FC01208300000F900F90DF91AA
:102A6000CF910895CF93DF931F92CDB7DEB78983BF
:102A700000008BE290E0FC018081882F90E0807262
:102A80009927892BB1F38CE290E02981FC01208306
:102A900000000F90DF91CF910895CF93DF93CDB7D2
:102AA000DEB700008BE290E0FC0180818823D4F740
:102AB0008CE290E0FC018081DF91CF910895CF936B
:102AC000DF931F92CDB7DEB70E9405150E940E1549
:102AD0000E94CA140E94B8140E944D1589838981EE
:102AE0000E947315F9CFCF93DF9300D000D01F92CF
:102AF000CDB7DEB78D838DE38B838FE78C83809199
:102B000088019091890180369105DCF00E940117BF
:102B100080E291E09A8389830BC089819A81FC01CC
:102B200080810E94321589819A8101969A838983D6
:102B300089819A81FC018081882379F70E9401179D
:102B40003EC09D818B81981739F48AE891E00E94FC
:102B5000E7150E94011733C09D818C819817E1F41D
:102B600080918801909189011816190644F5809189
:102B70008801909189010197909389018093880140
:102B8000809188019091890186579E4FFC011082A7
:102B90008D810E94321513C0809188019091890126
:102BA0009C012F5F3F4F3093890120938801865706
:102BB0009E4F2D81FC0120838D810E9432150F9044
:102BC0000F900F900F900F90DF91CF9108950F937A
:102BD0001F93CF93DF93CDB7DEB7CE51D1400FB661
:102BE000F894DEBF0FBECDBF9E01235E3E4FF901BC
:102BF000918380830E94CA14CE018B579F4FFC01A2
:102C000011821082CE01895F9E4FFC0111821082D9
:102C10009E012B573F4FBE016B5F7F4FCE01835EFE
:102C20009E4FFC018081918140E450E00E94960714
:102C30009A83898389819A81892B81F488E391E041
:102C40000E94D714CE018B579F4FFC012081318108
:102C5000CE010596B9010E94F317C7C0CE018B576C
:102C60009F4FFC0120813181CE010596B9010E9460
:102C70002D09CE018B579F4FFC0120813181CE0160
:102C80000596B9010E94DB0A9C838B838B819C8112
:102C9000892B81F482E491E00E94D714CE018B57F6
:102CA0009F4FFC0120813181CE010596B9010E9420
:102CB000F3179BC0CE018B579F4FFC016081718140
:102CC0009E01295F3E4FAE0149575F4FCE010596E9
:102CD000890120E430E00E94C9019A8389838981B7
:102CE0009A81892B81F48FE491E00E94D714CE0160
:102CF0008B579F4FFC0120813181CE010596B90190
:102D00000E94F31772C0CE01875F9E4FFC011082B4
:102D1000118212821382CE01895F9E4FFC012081B5
:102D20003181AE01475F5E4FCE0189579F4FB90198
:102D30000E944B039A83898389819A81892B81F42C
:102D400083E691E00E94D714CE018B579F4FFC0180
:102D500020813181CE010596B9010E94F31745C04B
:102D6000CE01875F9E4FFC0180819181A281B3815A
:102D7000BC01CD010E94CA08CE01875F9E4FFC01B5
:102D800080819181A281B3812B2F2F932A2F2F93A2
:102D9000292F2F938F9388E791E0892F8F9388E7CE
:102DA00091E08F931F9280E18F93CE01835F9E4FBE
:102DB000292F2F938F930E9429248DB79EB70A96AF
:102DC0000FB6F894DEBF0FBECDBFCE01835F9E4F1E
:102DD0000E94D714CE018B579F4FFC012081318177
:102DE000CE010596B9010E94F317C25EDE4F0FB601
:102DF000F894DEBF0FBECDBFDF91CF911F910F9131
:102E00000895CF93DF9300D01F92CDB7DEB78FE741
:102E10008B838AE00E9432151A82198208C08B8146
:102E20000E94321589819A8101969A8389838091C3
:102E300088019091890129813A81281739077CF30B
:102E400040E650E060E070E08AE891E00E94DB2319
:102E5000109289011092880100000F900F900F903E
:102E6000DF91CF910895CF93DF9300D0CDB7DEB738
:102E700084E890E00E945F209A83898389819A8107
:102E8000892B61F089819A8120E430E0FC01318353
:102E9000208389819A81FC011382128289819A811F
:102EA0000F900F90DF91CF910895CF93DF9300D0D3
:102EB00000D0CDB7DEB79A8389837C836B83898109
:102EC0009A81892B49F189819A81FC012281338180
:102ED00089819A81FC018081918128173907E0F46A
:102EE00089819A81FC0182819381AC014F5F5F4FA0
:102EF00029813A81F9015383428329813A810296DB
:102F0000880F991F820F931F2B813C81FC01318315
:102F1000208381E090E002C080E090E00F900F906D
:102F20000F900F90DF91CF910895CF93DF9300D052
:102F300000D0CDB7DEB79A8389837C836B83898188
:102F40009A81892B59F189819A81FC01828193812F
:102F5000892B21F189819A81FC01828193819C01D5
:102F60002150310989819A81FC013383228389812F
:102F70009A81FC018281938129813A810296880F8E
:102F8000991F820F931FFC01208131818B819C81CD
:102F9000FC013183208381E090E002C080E090E07A
:102FA0000F900F900F900F90DF91CF910895CF93D6
:102FB000DF9300D0CDB7DEB79A83898389819A8168
:102FC000FC0182819381019729813A810296880FC1
:102FD000991F820F931FFC01808191810F900F90A8
:102FE000DF91CF910895CF93DF9300D000D000D030
:102FF000CDB7DEB79C838B837E836D831A82198263
:103000002AC089819A81880F991F2B813C81820F68
:10301000931FFC0180819181892BC1F089819A8164
:10302000880F991F2B813C81820F931FFC018081A7
:1030300091810E94F72089819A81880F991F2B81A5
:103040003C81820F931FFC011182108289819A8139
:1030500001969A83898329813A818D819E812817DF
:10306000390778F2000026960FB6F894DEBF0FBE3F
:10307000CDBFDF91CF9108955058BB27AA270E945A
:1030800054180C94BA190E94811938F00E948819BA
:1030900020F039F49F3F19F426F40C947E190EF4B5
:1030A000E095E7FB0C947819E92F0E94DF1958F39B
:1030B000BA17620773078407950720F079F4A6F51D
:1030C0000C94011A0EF4E0950B2EBA2FA02D0B01D3
:1030D000B90190010C01CA01A0011124FF27591B5D
:1030E00099F0593F50F4503E68F11A16F040A22F63
:1030F000232F342F4427585FF3CF469537952795D4
:10310000A795F0405395C9F77EF41F16BA0B620BD2
:10311000730B840BBAF09150A1F0FF0FBB1F661F19
:10312000771F881FC2F70EC0BA0F621F731F841F5C
:1031300048F4879577956795B795F7959E3F08F082
:10314000B0CF9395880F08F09927EE0F9795879544
:1031500008950E94541908F481E008950E9491197D
:10316000E3950C94CB190E94C7180C94BA190E94CD
:10317000881958F00E94811940F029F45F3F29F026
:103180000C94781951110C94021A0C947E190E9417
:10319000DF1968F39923B1F3552391F3951B550B70
:1031A000BB27AA2762177307840738F09F5F5F4F1A
:1031B000220F331F441FAA1FA9F335D00E2E3AF059
:1031C000E0E832D091505040E695001CCAF72BD071
:1031D000FE2F29D0660F771F881FBB1F26173707C2
:1031E0004807AB07B0E809F0BB0B802DBF01FF27F4
:1031F00093585F4F3AF09E3F510578F00C94781940
:103200000C94021A5F3FE4F3983ED4F386957795C9
:103210006795B795F7959F5FC9F7880F911D9695AC
:10322000879597F90895E1E0660F771F881FBB1F08
:10323000621773078407BA0720F0621B730B840BB5
:10324000BA0BEE1F88F7E09508950E94E71988F001
:103250009F5798F0B92F9927B751B0F0E1F0660F5A
:10326000771F881F991F1AF0BA95C9F714C0B1309B
:1032700091F00E94011AB1E008950C94011A672F91
:10328000782F8827B85F39F0B93FCCF386957795CA
:103290006795B395D9F73EF49095809570956195B3
:1032A0007F4F8F4F9F4F0895990F0008550FAA0B1E
:1032B000E0E8FEEF16161706E807F907C0F0121649
:1032C0001306E407F50798F0621B730B840B950B4C
:1032D00039F40A2661F0232B242B252B21F40895A1
:1032E0000A2609F4A140A6958FEF811D811D08953E
:1032F00097F99F6780E870E060E008959FEF80ECA9
:10330000089500240A94161617061806090608954B
:1033100000240A94121613061406050608950C9448
:103320007E190E94E719D8F3E894E0E0BB279F5785
:10333000F0F02AED3FE049EC06C0EE0FBB0F661F30
:10334000771F881F28F0B23A62077307840728F0B6
:10335000B25A620B730B840BE3959A9572F780381F
:1033600030F49A95BB0F661F771F881FD2F79048DD
:103370000C94541B092E0394000C11F4882352F072
:10338000BB0F40F4BF2B11F460FF04C06F5F7F4F91
:103390008F4F9F4F0895EF93E0FF07C0A2EA2AEDF9
:1033A0003FE049EC5FEB0E9454180E94BA190F905D
:1033B000039401FC9058EAEFF0E00C948E1B57FD4B
:1033C0009058440F551F59F05F3F71F04795880F93
:1033D00097FB991F61F09F3F79F08795089512162A
:1033E00013061406551FF2CF4695F1DF08C01616D6
:1033F00017061806991FF1CF869571056105089487
:103400000895E894BB2766277727CB0197F908959D
:103410000E94541908F48FEF08950E94201A0C940A
:10342000BA190E94811938F00E94881920F095235A
:1034300011F00C9478190C947E1911240C94021A32
:103440000E94DF1970F3959FC1F3950F50E0551F4F
:10345000629FF001729FBB27F00DB11D639FAA27E9
:10346000F00DB11DAA1F649F6627B00DA11D661F38
:10347000829F2227B00DA11D621F739FB00DA11D59
:10348000621F839FA00D611D221F749F3327A00D13
:10349000611D231F849F600D211D822F762F6A2FAF
:1034A00011249F5750409AF0F1F088234AF0EE0F14
:1034B000FF1FBB1F661F771F881F91505040A9F741
:1034C0009E3F510580F00C9478190C94021A5F3FCE
:1034D000E4F3983ED4F3869577956795B795F7957D
:1034E000E7959F5FC1F7FE2B880F911D96958795F5
:1034F00097F90895FA01EE0FFF1F30962105310567
:10350000A1F16115710561F48038BFE39B0749F1B2
:1035100068949038810561F08038BFEF9B0741F0D7
:1035200099234AF5FF3FE1053105210519F1E8949A
:103530000894E795D901AA2329F4AB2FBE2FF85F91
:10354000D0F310C0FF5F70F4A695E0F7F73950F0A4
:1035500019F0FF3A38F49F779F930DD00F9007FC36
:103560009058089546F00C947E1960E070E080E871
:103570009FE308954FE79F775F934F933F932F9378
:103580000E94EC1B2F913F914F915F910E940D1A69
:103590000C94201B9F930E9491190F9007FCEE5FE3
:1035A0000C94CB1919F416F40C947E190C94521B3C
:1035B0000E94E719B8F39923C9F3B6F39F57550B47
:1035C00087FF0E94601B0024A0E640EA900180581B
:1035D0005695979528F4805C660F771F881F20F01A
:1035E00026173707480730F4621B730B840B20291A
:1035F00031294A2BA69517940794202531254A276F
:1036000058F7660F771F881F20F0261737074807DF
:1036100030F4620B730B840B200D311D411DA095FE
:1036200081F7B901842F9158880F96958795089551
:1036300029F416F00C9478190C94011A0C947E1944
:103640000E94E719A8F39638A0F707F80F92E894BC
:103650002BE33AEA48EB5FE70E94231A0F920F929E
:103660000F924DB75EB70F920E94341CE8E1F1E073
:103670000E94671B4F915F91EF91FF91E595EE1FBF
:10368000FF1F49F0FE57E0684427EE0F441FFA95EC
:10369000E1F74195550B0E94AE1B0F9007FE0C946D
:1036A000A21B08959F3F31F0915020F487957795A4
:1036B0006795B795880F911D9695879597F9089509
:1036C00091505040660F771F881FD2F70895DF93FF
:1036D000CF931F930F93FF92EF92DF927B018C01A8
:1036E000689406C0DA2EEF010E94201AFE01E894C9
:1036F000A5912591359145915591A6F3EF010E9431
:103700005418FE019701A801DA9469F7DF90EF9051
:10371000FF900F911F91CF91DF9108959F938F9309
:103720007F936F93FF93EF939B01AC010E940D1A5F
:10373000EF91FF910E94671B2F913F914F915F91F5
:103740000C940D1A9B01AC0160E070E080E89FE3EF
:103750000C94B3180C9478190C94521B0E94E7191E
:10376000D8F39923C9F3940F511DA3F391505040FE
:1037700094F059F0882332F0660F771F881F91501C
:103780005040C1F79E3F51052CF7880F911D96952B
:10379000879597F908955F3FACF0983E9CF0BB2762
:1037A000869577956795B79508F4B1609395C1F7BD
:1037B000BB0F58F711F460FFE8CF6F5F7F4F8F4F5B
:1037C0009F4FE3CF0C94021A16F00C94521B0C94EA
:1037D0007E1968940C9478190E94E719A8F399232C
:1037E000C1F3AEF3DF93CF931F930F93FF92C92FD3
:1037F000DD2788232AF02197660F771F881FDAF7C5
:1038000020E030E040E85FEB9FE3883920F0803E25
:1038100038F021968F770E943D18E0E4F1E004C073
:103820000E943D18EDE6F1E00E94671B8B01BE018E
:10383000EC01FB2E6F5771097595771F880B990B5B
:103840000E946A1C28E132E741E35FE30E94201AEC
:10385000AF2D9801AE01FF900F911F91CF91DF9195
:103860000E9454180C94BA19FA01DC01AA0FBB1F6C
:103870009B01AC01BF5728F42227332744275078F7
:1038800020C0B75190F4AB2F00244695379527956B
:10389000011CA395D2F3002071F0220F331F441FA7
:1038A000B395DAF30ED00C943C1861307105A0E8A2
:1038B0008A07B94630F49B01AC0166277727882731
:1038C0009078309621F0208331834283538308958A
:1038D000E89409C097FB3EF49095809570956195AA
:1038E0007F4F8F4F9F4F9923A9F0F92F96E9BB2760
:1038F0009395F695879577956795B795F111F8CFDC
:10390000FAF4BB0F11F460FF1BC06F5F7F4F8F4F46
:103910009F4F16C0882311F096E911C0772321F03C
:103920009EE8872F762F05C0662371F096E8862FD4
:1039300070E060E02AF09A95660F771F881FDAF72B
:10394000880F9695879597F90895A0E1B0E0EBEA86
:10395000FCE10C9428207C011B016A01FC01178208
:103960001682838181FF44C39E012F5F3F4F39013F
:10397000F7019381F10193FD859193FF81911F01DF
:10398000882309F431C3853239F493FD859193FF7F
:1039900081911F01853239F4B70190E00E94ED2337
:1039A00056016501E5CF10E0512C912CFFE1F9158E
:1039B000D8F08B3279F038F4803279F08332A1F488
:1039C000F92DF0612EC08D3261F0803369F4292D1C
:1039D00021602DC0392D3260932E892D8460982E60
:1039E0002AC0E92DE86015C097FC2DC020ED280FF6
:1039F0002A3088F496FE06C03AE0139F200D112469
:103A0000122F19C08AE0589E200D1124522EE92D44
:103A1000E0629E2E10C08E3231F496FCE5C2F92D84
:103A2000F0649F2E08C08C3621F4292D2068922E38
:103A300002C0883641F4F10193FD859193FF819195
:103A40001F018111B3CF9BEB980F933020F4992D78
:103A50009061805E07C09BE9980F933008F066C1C3
:103A6000992D9F7E96FF16E09F73992E853619F447
:103A70009064992E08C0863621F4392F3068932E31
:103A800002C01111115097FE07C01C3350F444249A
:103A90004394410E27E00BC0183038F027E017E0C0
:103AA00005C027E09CE3492E02C0212F412C56017E
:103AB00084E0A80EB11CF60160817181828193813E
:103AC000042DA3010E94CE226C01F981FC87F0FF36
:103AD00002C0F3FF06C091FC06C092FE06C000E2E1
:103AE00005C00DE203C00BE201C000E08C858C70C4
:103AF00019F001115AC29BC297FE10C04C0CFC85F4
:103B0000F4FF04C08A81813309F44A94141474F5D3
:103B100028E0241578F588E0482E2CC096FC2AC0B1
:103B2000812F90E08C159D059CF03CEFC3163FEF74
:103B3000D30674F0892D8068982E0AC0E2E0F0E088
:103B4000EC0FFD1FE10FF11D8081803319F411503E
:103B50001111F4CF97FE0EC044244394410E812FDF
:103B600090E0C816D9062CF41C1904C044244394D0
:103B700001C010E097FE06C01C141D0434F4C601F9
:103B8000019605C085E090E002C081E090E001115F
:103B90000196112331F0212F30E02F5F3F4F820F2C
:103BA000931F252D30E08217930714F4581A01C093
:103BB000512C892D897049F4552039F0B70180E2E4
:103BC00090E00E94ED235A94F7CF002329F0B7012B
:103BD000802F90E00E94ED2393FC09C0552039F01E
:103BE000B70180E390E00E94ED235A94F7CF97FE4F
:103BF0004CC04601D7FE02C0812C912CC601881909
:103C00009909F301E80FF91FFE87ED879601241942
:103C10003109388B2F87012F10E01195019511097B
:103C20003FEF8316930629F4B7018EE290E00E94DD
:103C3000ED23C814D9044CF08F859889881599050F
:103C400024F4ED85FE85818101C080E3F1E08F1AC7
:103C500091082D853E852F5F3F4F3E872D8780162B
:103C600091062CF0B70190E00E94ED23D9CFC81443
:103C7000D90441F49A81963320F4953319F43C85A4
:103C800034FF81E3B70190E04EC08A81813319F09F
:103C90009C859F7E9C87B70190E00E94ED231111C7
:103CA00005C094FC18C085E690E017C0B7018EE20D
:103CB00090E00E94ED231E5F82E001E0080FF30117
:103CC000E80FF11D8081B70190E00E94ED23802F65
:103CD0000113F3CFE6CF85E490E0B7010E94ED2316
:103CE000D7FC06C0C114D10441F4EC85E4FF05C043
:103CF000D194C194D1088DE201C08BE2B70190E06C
:103D00000E94ED2380E32AE0C216D1042CF08F5FDD
:103D1000FAE0CF1AD108F7CFB70190E00E94ED2367
:103D2000B701C601C0960E94ED2354C1833631F01D
:103D3000833779F0833509F056C020C0560132E050
:103D4000A30EB11CF6018081898301E010E06301BC
:103D500012C05601F2E0AF0EB11CF601C080D18056
:103D600096FE03C0612F70E002C06FEF7FEFC601C7
:103D70000E94E2238C01F92DFF7714C0560122E046
:103D8000A20EB11CF601C080D18096FE03C0612F47
:103D900070E002C06FEF7FEFC6010E94C7238C0165
:103DA000F92DF0689F2EF3FD1AC0852D90E00817BD
:103DB0001907A8F4B70180E290E00E94ED235A941D
:103DC000F4CFF60197FC859197FE81916F01B701C1
:103DD00090E00E94ED2351105A94015011090115F1
:103DE000110579F7F7C0843611F0893661F556016F
:103DF00097FE09C024E0A20EB11CF601608171811A
:103E0000828193810AC0F2E0AF0EB11CF60160819D
:103E10007181072E000C880B990BF92DFF769F2ED0
:103E200097FF09C090958095709561957F4F8F4F52
:103E30009F4FF0689F2E2AE030E0A3010E947B2470
:103E4000C82EC6183FC0092D853721F40F7E2AE001
:103E500030E01DC0097F8F3691F018F4883559F095
:103E6000C3C0803719F0883711F0BEC0006104FF6D
:103E700009C0046007C094FE08C0066006C028E0C0
:103E800030E005C020E130E002C020E132E0560120
:103E900007FF09C084E0A80EB11CF60160817181A2
:103EA0008281938108C0F2E0AF0EB11CF6016081FF
:103EB000718180E090E0A3010E947B24C82EC61887
:103EC0000F77902E96FE0BC0092D0E7FC11650F471
:103ED00094FE0AC092FC08C0092D0E7E05C0DC2CA1
:103EE000092D03C0DC2C01C0D12E04FF0DC0FE0142
:103EF000EC0DF11D8081803311F4097E09C002FFB1
:103F000006C0D394D39404C0802F867809F0D3944C
:103F100003FD11C000FF06C01C2DD51480F4150D43
:103F20001D190DC0D51458F4B70180E290E00E942D
:103F3000ED23D394F7CFD51410F45D1801C0512CA4
:103F400004FF10C0B70180E390E00E94ED2302FF60
:103F500017C001FD03C088E790E002C088E590E04B
:103F6000B7010CC0802F867859F001FF02C08BE2A8
:103F700001C080E207FD8DE2B70190E00E94ED23D1
:103F8000C11638F4B70180E390E00E94ED23115090
:103F9000F7CFCA94F301EC0DF11D8081B70190E0D9
:103FA0000E94ED23C110F5CF15C0F4E0F51560F5C2
:103FB00084E0581A93FE1FC0011127C02C8523FFEF
:103FC0002AC00AE911E0392D3071932EF80184914D
:103FD000811124C0552009F4E4CCB70180E290E0BF
:103FE0000E94ED235A94F6CFF7018681978126C06F
:103FF0008FEF9FEF23C0B70180E290E00E94ED2396
:104000005A945110F8CFD8CF512CB701802F90E09F
:104010000E94ED23D3CF0EE911E0D5CF911080524D
:10402000B70190E00E94ED230F5F1F4FCFCF23E039
:10403000251510F483E0BDCF512CC0CF6096E2E18E
:104040000C944420EE0FFF1F0590F491E02D09948D
:104050002F923F924F925F926F927F928F929F9298
:10406000AF92BF92CF92DF92EF92FF920F931F9386
:10407000CF93DF93CDB7DEB7CA1BDB0B0FB6F89437
:10408000DEBF0FBECDBF09942A88398848885F8477
:104090006E847D848C849B84AA84B984C884DF80E8
:1040A000EE80FD800C811B81AA81B981CE0FD11DCC
:1040B0000FB6F894DEBF0FBECDBFED0108950F938C
:1040C0001F93CF93DF938230910510F482E090E04C
:1040D000E091EC01F091ED0120E030E0A0E0B0E0F3
:1040E000309719F140815181028113814817590796
:1040F000C8F08417950769F4109731F012960C9365
:10410000129713961C9327C00093EC011093ED01B6
:1041100022C02115310519F04217530718F49A01EE
:10412000BD01EF01DF01F801DBCF21153105F9F009
:10413000281B390B2430310580F48A819B8161155D
:10414000710521F0FB019383828304C09093ED01FC
:104150008093EC01FE01329644C0FE01E20FF31F92
:104160008193919322503109398328833AC0209159
:10417000EA013091EB01232B41F4209102013091AF
:1041800003013093EB012093EA012091000130916B
:1041900001012115310541F42DB73EB740910401CD
:1041A00050910501241B350BE091EA01F091EB01E0
:1041B000E217F307A0F42E1B3F0B2817390778F0FE
:1041C000AC014E5F5F4F2417350748F04E0F5F1F5D
:1041D0005093EB014093EA018193919302C0E0E098
:1041E000F0E0CF01DF91CF911F910F910895CF9310
:1041F000DF93009709F481C0FC0132971382128289
:10420000A091EC01B091ED01109781F420813181F2
:10421000820F931F2091EA013091EB012817390793
:1042200051F5F093EB01E093EA0167C0ED0120E066
:1042300030E0CE17DF0740F44A815B819E014115D3
:104240005105F1F0EA01F5CFD383C283408151815A
:10425000840F951FC817D90759F488819981840F55
:10426000951F0296918380838A819B8193838283A9
:104270002115310529F4F093ED01E093EC013DC0E7
:10428000E901FB83EA8349915991C40FD51FEC17CB
:10429000FD0761F480819181840F951F0296E901E9
:1042A00099838883828193819B838A83E0E0F0E015
:1042B00012968D919C911397009719F0FD01DC01E6
:1042C000F7CF8D919C9111979D012E5F3F4F820FEB
:1042D000931F2091EA013091EB012817390769F407
:1042E000309729F41092ED011092EC0102C0138274
:1042F0001282B093EB01A093EA01DF91CF91089570
:10430000A0E0B0E0E6E8F1E20C942E20EC016B01B5
:104310006115710519F0FB01918380837E01FFEF28
:10432000EF1AFF0A0881802F90E00E94A623892BB4
:1043300011F0E701F3CF0D3239F47E0182E0E80E8F
:10434000F11C098111E008C00B3229F47E0192E0D2
:10435000E90EF11C098110E0E701219743E050E0EC
:104360006AEA71E0CE010E94AF23892BC1F4239643
:1043700045E050E065EA71E0CE010E94AF23892B51
:1043800009F42596C114D10419F0F601D183C08334
:104390001111F6C060E070E080E89FE7FAC043E0EA
:1043A00050E062EA71E0CE010E94AF23892B59F4FC
:1043B000C114D10409F4E9C0F2E0EF0EF11CF601DA
:1043C000F182E082E2C020E030E0A901C0E0D0E06C
:1043D000F70180EDA82EA00E89E08A1530F1912F0B
:1043E0009260B92E812F887012FF04C0811124C001
:1043F000219622C081112197A5E0B0E00E94DC2423
:10440000DC01CB01880F991FAA1FBB1F9C01AD01C6
:104410002A0D311D411D511D283989E938074807EA
:1044200089E1580748F0166006C09EEFA9120AC03D
:1044300013FD40C01860B12E8FEFE81AF80A008112
:104440001B2DC6CF802F8F7D8534A1F580818D32C5
:1044500011F4106106C08B3221F0319661E070E0FA
:1044600004C08181329662E070E080538A3018F097
:10447000E61BF70B1FC060E070E060389CE0790736
:104480005CF4DB01AA0FBB1FAA0FBB1F6A0F7B1FC7
:10449000660F771F680F711D3196DF0111978C91A0
:1044A00080538A3050F314FF03C0719561957109F0
:1044B000C60FD71F11FF08C0C114D10429F0CF01C6
:1044C0000197F60191838083CA01B9010E94681C9B
:1044D000212F2370233019F04B015C0106C04B01E2
:1044E0005C01B7FAB094B7F8B09420E030E0A901CD
:1044F000C501B4010E94A918882309F43EC0D7FF62
:1045000006C0D195C195D10901EC11E002C009EDB9
:1045100011E06801F8E1CF1AD10890E2E92EF12C00
:10452000CE15DF0574F0F801259135914591549130
:10453000C501B4010E940D1A4B015C01CE19DF09BF
:10454000EFCF04501109F594E7940C151D0541F7C0
:104550008A2D880F8B2D881F8F3F49F020E030E097
:10456000A901C501B4010E94A918811106C082E207
:1045700090E09093EF018093EE01C501B40109C072
:1045800060E070E080E89FEF04C060E070E080ECE5
:104590009FE7CDB7DEB7ECE00C944A20283008F056
:1045A00027E03327DA01990F311D87FD91600096CE
:1045B0006105710539F432602E5F3D9330E32A9531
:1045C000E1F708959F3F30F080387105610509F0EB
:1045D0003C5F3C5F3D93913008F08068911DDF9314
:1045E000CF931F930F93FF92EF92192F987F969579
:1045F000E92F96959695E90FFF27E95CFD4F9927DE
:104600003327EE24FF24A701E701059008940794BF
:1046100028F4360FE71EF81E491F511D660F771F3D
:10462000881F991F0694A1F70590079428F4E70EB8
:10463000F81E491F561FC11D770F881F991F661F3F
:104640000694A1F70590079428F4F80E491F561F09
:10465000C71FD11D880F991F661F771F0694A1F7EA
:104660000590079420F4490F561FC71FD81F990FB4
:10467000661F771F881F0694A9F7849110951770FD
:1046800041F0D695C79557954795F794E7941A95B5
:10469000C1F7EDEDF1E068941590159135916591B4
:1046A000959105907FE27395E118F10A430B560B43
:1046B000C90BD009C0F7E10CF11E431F561FC91FDB
:1046C000D01D7EF4703311F48A95E6CFE894015042
:1046D00030F0080F0AF40027021708F4202F239562
:1046E000022F7A3328F079E37D932A95E9F710C0F9
:1046F0007D932A9589F60694979567953795179532
:104700001794E118F10A430B560BC90BD00998F026
:1047100023957E9173957A3308F070E37C93201390
:10472000B8F77E9170617D9330F0839571E37D934E
:1047300070E32A95E1F71124EF90FF900F911F91FC
:10474000CF91DF91992787FD9095089591110C9451
:10475000D924803219F089508550C8F70895FB019B
:10476000DC014150504088F08D9181341CF08B3534
:104770000CF4805E659161341CF06B350CF4605E66
:10478000861B611171F3990B0895881BFCCFFC0106
:104790000590615070400110D8F7809590958E0F6C
:1047A0009F1F0895FB01DC0102C001900D92415052
:1047B0005040D8F70895DC0101C06D93415050403E
:1047C000E0F70895FC016150704001900110D8F7A6
:1047D000809590958E0F9F1F08950F931F93CF93F1
:1047E000DF93FB01238121FD03C08FEF9FEF2CC0DE
:1047F00022FF16C046815781248135814217530715
:1048000044F4A081B1819D012F5F3F4F318320830C
:104810008C93268137812F5F3F4F3783268314C0C7
:104820008B01EC01FB010084F185E02D0995892BBA
:10483000E1F6D80116968D919C91179701961796DF
:104840009C938E931697CE01DF91CF911F910F917C
:104850000895AEE0B0E0EFE2F4E20C9436200D896A
:104860001E898F89988D26E02C831A83098397FFF0
:1048700002C080E090E801979E838D83AE01455E83
:104880005F4F698D7A8DCE0101960E94A51C4D81E6
:104890005E8157FD0AC02F813885421753070CF4FB
:1048A0009A01F801E20FF31F10822E96E4E00C94B7
:1048B0005220AEE0B0E0EFE5F4E20C9436200D8932
:1048C0001E8986E08C831A8309838FEF9FE79E837E
:1048D0008D83AE01475E5F4F6F89788DCE01019663
:1048E0000E94A51CEF81F885E00FF11F10822E9623
:1048F000E4E00C945220FA01AA27283051F120312B
:1049000081F1E8946F936E7F6E5F7F4F8F4F9F4F63
:10491000AF4FB1E03ED0B4E03CD0670F781F891FA5
:104920009A1FA11D680F791F8A1F911DA11D6A0F73
:10493000711D811D911DA11D20D009F468943F9126
:104940002AE0269F11243019305D3193DEF6CF0125
:104950000895462F4770405D4193B3E00FD0C9F7EB
:10496000F6CF462F4F70405D4A3318F0495D31FD58
:104970004052419302D0A9F7EACFB4E0A6959795AB
:10498000879577956795BA95C9F700976105710581
:1049900008959B01AC010A2E0694579547953795CB
:1049A0002795BA95C9F7620F731F841F951FA01D25
:1049B00008959927882708950E94E724A59F900DC0
:1049C000B49F900DA49F800D911D11240895A29F66
:1049D000B001B39FC001A39F700D811D1124911DD3
:1049E000B29F700D811D1124911D0895F894FFCF81
:1049F0000000F00120002566007371727400736975
:104A00006E00636F7300256600706900616E73004D
:104A100045787072657373696F6E20697320746F67
:104A20006F206C6F6E6721006C6578206572726F05
:104A3000720073796E746178206572726F720065AE
:104A400072726F7220696E20636F6E766572736921
:104A50006F6E006572726F7220696E2063616C63A5
:0C4A6000756C6174696F6E0025660000C3
:00000001FF
