S01600004156525F43616C63756C61746F722E73726563BC
S11300000C9446000C9463000C9463000C946300FD
S11300100C9463000C9463000C9463000C946300D0
S11300200C9463000C9463000C9463000C946300C0
S11300300C9463000C9463000C9463000C946300B0
S11300400C9463000C9463000C9463000C946300A0
S11300500C9463000C9463000C9463000C94630090
S11300600C9463000C9463000C9463000C94630080
S11300700C9463000C9463000C9463000C94630070
S11300800C9463000C9463000C94630011241FBE51
S1130090CFEFD0E1DEBFCDBF11E0A0E0B1E0E0E4FE
S11300A0F3E002C005900D92AE30B107D9F721E01C
S11300B0AEE0B1E001C01D92A631B207E1F70E94A3
S11300C081010C949E010C940000E2E6F0E0808132
S11300D08860808385E08A95F1F700008081877FBE
S11300E0808385E08A95F1F70000089582B18F77C7
S11300F082B9E2E6F0E080818D7F80838081846034
S11301008083E2E6F0E080818860808382E08A95E3
S1130110F1F700C081B180789081977F908392E05D
S11301209A95F1F700C090819860908392E09A9537
S1130130F1F700C09081977F908392E09A95F1F750
S113014000C08111DECF80818B7F808382B1806883
S113015082B90895CF93C82F0E947600E2E6F0E0BA
S113016080818D7F808380818B7F80838081877F66
S1130170808383B18F7083B983B19C2F907F892B47
S113018083B90E94650083B18F7083B923B130E1D4
S1130190C39FC0011124822B83B90E946500CF91B3
S11301A00895CF93C82F0E947600E2E6F0E08081A4
S11301B08260808380818B7F80838081877F80833E
S11301C083B18F7083B983B19C2F907F892B83B9BE
S11301D00E94650083B18F7083B923B130E1C39F5E
S11301E0C0011124822B83B90E946500CF91089528
S11301F08091120190911301880F991F880F991F04
S11302002091100130911101220F331F8860282B97
S113021080910E01822B0E94AA00089582B1806F02
S113022082B9E1E6F0E080818E608083E2E6F0E06E
S113023080818D7F808380818D7F808380E283B9FC
S11302400E9465000E9465000E94650088E20E9489
S1130250AA0088E20E94AA0088E20E94AA0082E022
S11302600E94AA0081E00E94AA0010921301109239
S11302701201109211011092100110920F011092AC
S11302800E010E94F80081E090E0909315018093A4
S1130290140108958091140190911501892B11F492
S11302A00E940E0108950E944A0181E090E090931B
S11302B01301809312010E94F80008950E944A01DC
S11302C081E090E090931101809310010E94F80066
S11302D008950E944A0110920F0110920E010E948B
S11302E0F8000895CF93DF93EC010E944A0103C004
S11302F00E94D100219688818111FACFDF91CF919C
S113030008950E94530180E091E00E9472012FEF52
S11303108DE399E4215080409040E1F700C0000053
S11303200E945E012FEF81E19AE7215080409040C6
S1130330E1F700C000000E946901FFCFF894FFCFED
S111034048656C6C6F20576F726C642100006E
S9030000FC
