:100000000C941C010C9439010C9439010C943901A5
:100010000C9439010C9439010C9439010C94390178
:100020000C9439010C9439010C9439010C94390168
:100030000C9439010C9439010C9439010C94390158
:100040000C9439010C9439010C9439010C94390148
:100050000C9439010C9439010C9439010C94390138
:100060000C9439010C9439010C9439010C94390128
:100070000C9439010C9439010C9439010C94390118
:100080000C9439010C9439010C9439016A046F0401
:100090005C045904730478047304600473047304E7
:1000A0007304730473047304730473047304730498
:1000B0007304730473047304730473047304730488
:1000C0007304730473047304730473047304730478
:1000D0007304730473047304730473047304730468
:1000E0007304730473047304730473047304730458
:1000F000730473047304730465046E616E00696EA7
:1001000066004E414E494E495459494E46CDCCCCDD
:100110003D0AD7233C17B7D13877CC2B329595E6DB
:10012000241FB14F0A000020410000C84200401CBB
:100130004620BCBE4CCA1B0E5AAEC59D7400407A08
:1001400010F35A00A0724E18090010A5D4E8000060
:10015000E87648170000E40B54020000CA9A3B00FE
:100160000000E1F505000080969800000040420F75
:10017000000000A08601000000102700000000E839
:1001800003000000006400000000000A00000000FE
:10019000000100000000002C76D888DC674F08239F
:1001A000DFC1DFAE59E1B1B796E5E3E453C63AE605
:1001B00051997696E8E6C28426EB898C9B62ED40E5
:1001C0007C6FFCEFBC9C9F40F2BAA56FA5F4900534
:1001D0005A2AF75C936B6CF9676DC11BFCE0E40D68
:1001E00047FEF520E6B500D0ED902E03009435775C
:1001F000050080841E080000204E0A000000C80C84
:10020000333333330F986E12831141EF8D211489EC
:100210003BE65516CFFEE6DB18D1844B381BF77C46
:100220001D901DA4BBE424203284725E228100C98B
:10023000F124ECA1E53D270011241FBECFEFD0E152
:10024000DEBFCDBF11E0A0E0B1E0E6E8F5E202C01C
:1002500005900D92A235B107D9F721E0A2E5B1E0F2
:1002600001C01D92A036B207E1F70E9434070C943A
:10027000C1120C94000091E0863009F490E0892FBF
:1002800090E00895863061F0833069F09CEF980F1C
:10029000923060F08150823060F480E090E0089508
:1002A00083E090E0089582E090E0089581E090E09E
:1002B00008958FEF9FEF08952F923F925F926F9274
:1002C0007F928F929F92AF92BF92CF92DF92EF92E6
:1002D000FF920F931F93CF93DF93CDB7DEB72C9789
:1002E0000FB6F894DEBF0FBECDBF4C0178876F8389
:1002F0005A0139011C870B870E94F5077C0100E039
:1003000010E0212C312C21E030E03A872987CBC046
:10031000880F991FF401E80FF91F808191819E8356
:100320008D83FC015288852D0E948C05892BF1F468
:1003300053C0680106151705B0F41A821982BE0170
:100340006F5F7F4FC7010E942208892B61F00F5F0A
:100350001F4FCC0CDD1CF501EC0DFD1D89819A8130
:100360009183808303C01A8619862DC0F70182818C
:100370009381892B41F1852D0E943B016C01892BD2
:1003800089F0852D0E9442019C838B83C7010E94C6
:100390004308FC0182890E9442012B813C81821723
:1003A00093073CF6CD2879F4852D0E9442016C011B
:1003B000C7010E944308FC0182890E944201C816BD
:1003C000D9060CF4B6CF6D817E81C7010E94030867
:1003D000892B09F065C04DC0F7E05F1209C06D813F
:1003E0007E81C7010E940308892B09F059C044C0CF
:1003F00028E0521247C01FC01A821982BE016F5FE7
:100400007F4FC7010E942208892B39F0C801930150
:10041000215031090217130718F01A86198617C0E0
:100420000F5F1F4F880F991FF501E80FF91F898192
:100430009A8191838083F70182819381892B39F09E
:10044000C7010E944308FC0182898730A9F6F701A1
:1004500082819381892B21F11A821982BE016F5FFB
:100460007F4FC7010E942208892BD1F41A86198672
:1004700033C01A86198630C01A8619862DC01A868E
:1004800019862AC0C614D704D0F70F5F1F4FCC0CB3
:10049000DD1CF501EC0DFD1D2D813E813183208396
:1004A0003FEF231A330AC101EF81F8852E163F066C
:1004B00098F468010615170508F42ACF0DC0B80195
:1004C0000615170578F40F5F1F4F660F771F6A0D2B
:1004D0007B1DC7010E942208F70182819381892B2D
:1004E00071F702C01A861986EB85FC85118300839B
:1004F000C7010E94D20E89859A852C960FB6F89472
:10050000DEBF0FBECDBFDF91CF911F910F91FF9046
:10051000EF90DF90CF90BF90AF909F908F907F90A3
:100520006F905F903F902F9008952F923F925F922F
:100530006F927F928F929F92AF92BF92CF92DF92F3
:10054000EF92FF920F931F93CF93DF93CDB7DEB758
:100550006E970FB6F894DEBF0FBECDBF7C014B0186
:100560006A010E94F5075C01612C712CDE8ECD8E34
:1005700032C1F301EE0FFF1FEE0DFF1D0190F08160
:10058000E02D1289111105C0BF01C5010E940308A9
:100590001FC11330D1F5C5010E9443088C0160E0F2
:1005A00070E00E945B0FDC01CB01B058BF93AF93AA
:1005B0009F938F9386E091E09F938F931F9280E1AA
:1005C0008F93CE0101969F938F930E94F411AC01FB
:1005D0000FB6F894DEBF0FBECDBF20E030E00DC0F7
:1005E000E1E0F0E0EC0FFD1FE20FF31F8081F80166
:1005F000E20FF31F80832F5F3F4F2417350784F3EB
:10060000F801518B408B128AE3C0812F0E948C0528
:10061000892B09F4DDC01C8A1B8A1A8A198ABE013B
:100620006D5E7F4FC5010E942208BE016F5E7F4F45
:10063000C5010E94220860E070E08B899C890E94BD
:100640005B0F698F7A8F8B8F9C8F60E070E0898958
:100650009A890E945B0F6D8B7E8B8F8B988F1130E8
:1006600069F49B01AC01698D7A8D8B8D9C8D0E9404
:100670007908D62E172F082F592E76C0123079F40C
:100680002D893E894F89588D698D7A8D8B8D9C8DF2
:100690000E947808D62E172F082F592E65C01430C7
:1006A00079F42D893E894F89588D698D7A8D8B8D8E
:1006B0009C8D0E94130AD62E172F082F592E54C036
:1006C0001530F9F420E030E0A9016D897E898F8929
:1006D000988D0E94E508811105C0CD8CDE8C00E06C
:1006E00010E081C02D893E894F89588D698D7A8DA2
:1006F0008B8D9C8D0E94EA08D62E172F082F592E1D
:1007000033C01630B9F0D12C10E000E0512C2CC0D1
:100710002D893E894F89588D6D2D712F802F952DF4
:100720000E94130AD62E172F082F592EFFEF2F1ACB
:100730003F0A09C0212C312CD12C10E000E80F2EEB
:10074000FFE35F2EF02DB101032C000C880B990BF9
:100750000E945E099B01AC01698D7A8D8B8D9C8D09
:100760000E940E0A1816A4F25F920F931F93DF9255
:1007700086E091E09F938F931F9280E18F93CE014B
:1007800001969F938F930E94F411AC010FB6F894D9
:10079000DEBF0FBECDBF20E030E00EC0EB89FC898C
:1007A000A1E0B0E0AC0FBD1FA20FB31F8C91E20F10
:1007B000F31F80832F5F3F4F241735077CF36B892E
:1007C0007C89FB01518B408B128AC5010E94030872
:1007D000FFEF6F1A7F0A6814790408F4CACECD8C33
:1007E000DE8C01E010E0F50182819381892B99F084
:1007F0001A821982BE016F5F7F4FC5010E942208D5
:1008000060E070E089819A810E945B0FF60160834D
:10081000718382839383C5010E94D20EC8016E96B4
:100820000FB6F894DEBF0FBECDBFDF91CF911F9101
:100830000F91FF90EF90DF90CF90BF90AF909F907F
:100840008F907F906F905F903F902F9008954F9280
:100850005F926F927F928F929F92AF92BF92CF9250
:10086000DF92EF92FF920F931F93CF93DF935C0180
:100870006B014A013901C0E0D0E020E030E04AE0FD
:100880000FEF1FEFA9C080E2581609F4A4C0ECE2F4
:100890005E1204C00F2EFEE25F2EF02D852D90E03B
:1008A000FC01B897E733F105F0F4EA5BFF4F0C94D5
:1008B000FD0D442443941FC06894442442F81BC097
:1008C0000F2EF5E04F2EF02D16C00F2EF6E04F2E16
:1008D000F02D11C00F2EF7E04F2EF02D0CC06894B4
:1008E000442443F808C00F2EFAE04F2EF02D03C029
:1008F0006894442441F8FAE04F1207C080ED850D5A
:100900008A3090F08EE2581689F0EAE04E1681F0B7
:10091000F2E04F1225C04A3081F0473099F0443060
:10092000B1F04530E9F418C0412C1AC0412C18C070
:100930000F2EF9E04F2EF02D13C00F2EF3E04F2EA7
:10094000F02D0EC00F2EF3E04F2EF02D09C00F2E0C
:10095000F3E04F2EF02D04C00F2EF3E04F2EF02DBC
:10096000411002C04423C9F089E0481202C0493056
:10097000B1F00F5F1F4F08151905E0F57801EE0C77
:10098000FF1CEC0CFD1C83E190E00E943A0EF70185
:100990009183808380E090E003C0C90101C0C90158
:1009A000F801EE0FFF1FEC0DFD1DA081B181109726
:1009B00021F152964C92A081B1819C012F5F3F4F53
:1009C00051963C932E93509740815181FA01E80F44
:1009D000F91F5082442D2196F501EC0FFD1F508028
:1009E000511051CF0F5F1F4FF3011183008381E03E
:1009F00090E005C080E090E002C080E090E0DF91F0
:100A0000CF911F910F91FF90EF90DF90CF90BF900B
:100A1000AF909F908F907F906F905F904F900895D0
:100A2000CF92DF92EF92FF920F931F93CF93DF93BA
:100A30006C017B01C0E0D0E062C08E01000F111F8D
:100A40000C0D1D1DD801ED91FC9111978289893003
:100A500009F054C0808991898130910529F5208160
:100A6000253611F5128A2C9111963C9180E48F93D2
:100A70008DE28F9388EF8F9384E58F9389E091E0E7
:100A80009F938F933F932F930E942412D801ED914F
:100A9000FC91918B808BEDB7FEB738960FB6F8942A
:100AA000FEBF0FBEEDBF2AC0029741F5808180379F
:100AB00029F58181893611F5128AD8012C91119678
:100AC0003C9180E48F9389E48F938FE08F938BED3B
:100AD0008F9389E091E09F938F933F932F930E9490
:100AE0002412D801ED91FC91918B808BEDB7FEB76C
:100AF00038960FB6F894FEBF0FBEEDBF2196CE1507
:100B0000DF0508F49ACFDF91CF911F910F91FF90ED
:100B1000EF90DF90CF900895815091E0863008F0FB
:100B200090E0892F90E008956F927F928F929F922C
:100B3000AF92BF92CF92DF92EF92FF920F931F93EB
:100B4000CF93DF934C017B0100E010E00F2EFAE021
:100B50006F2EF02DA12CB12C58C0F801EE0FFF1F05
:100B6000E80DF91DC081D1817A8887E0781204C030
:100B70008FEFA81AB80A46C088E0781204C081E056
:100B8000A81AB1083FC087E0781204C088E0681650
:100B900009F445C0711003C0662009F443C0872DD5
:100BA0000E948C056C01892B61F0862D0E948C05BA
:100BB000892B39F083E0781204C08CEF860D8230E7
:100BC000A0F587E0681205C0CD2819F083E07812FF
:100BD0002FC0772071F016C0FE01E80FF91F2081A9
:100BE0002E3211F44F5F5F4F4230510524F50196CC
:100BF00004C080E090E040E050E028893989821705
:100C0000930750F30F5F1F4F672C0E151F0508F455
:100C1000A4CF81E0AB2809F080E090E00EC080E036
:100C200090E00BC080E090E008C080E090E005C05C
:100C300080E090E002C080E090E0DF91CF911F91D2
:100C40000F91FF90EF90DF90CF90BF90AF909F906B
:100C50008F907F906F900895E2E6F0E08081886049
:100C6000808385E08A95F1F700008081877F80830B
:100C700085E08A95F1F70000089582B18F7782B9F7
:100C8000E2E6F0E080818D7F8083808184608083D4
:100C9000E2E6F0E080818860808382E08A95F1F767
:100CA00000C081B180789081977F908392E09A957F
:100CB000F1F700C090819860908392E09A95F1F7E7
:100CC00000C09081977F908392E09A95F1F700C0E1
:100CD0008111DECF80818B7F808382B1806882B971
:100CE0000895CF93C82F0E943D06E2E6F0E0808190
:100CF0008D7F808380818B7F80838081877F8083CD
:100D000083B18F7083B983B19C2F907F892B83B976
:100D10000E942C0683B18F7083B923B130E1C39F49
:100D2000C0011124822B83B90E942C06CF91089513
:100D3000CF93C82F0E943D06E2E6F0E080818260FA
:100D4000808380818B7F80838081877F808383B154
:100D50008F7083B983B19C2F907F892B83B90E94B8
:100D60002C0683B18F7083B923B130E1C39FC001DA
:100D70001124822B83B90E942C06CF910895809173
:100D8000560190915701880F991F880F991F209144
:100D9000540130915501220F331F8860282B809118
:100DA0005201822B0E947106089582B1806F82B930
:100DB000E1E6F0E080818E608083E2E6F0E0808111
:100DC0008D7F808380818D7F808380E283B90E94C4
:100DD0002C060E942C060E942C0688E20E947106B6
:100DE00088E20E94710688E20E94710682E00E94F9
:100DF000710681E00E94710610925701109256010F
:100E00001092550110925401109253011092520108
:100E10000E94BF0681E090E09093590180935801B1
:100E200008958091580190915901892B11F40E94E5
:100E3000D50608950E94110781E090E09093570134
:100E4000809356010E94BF060895CF93DF93EC0173
:100E50000E94110703C00E94980621968881811183
:100E6000FACFDF91CF9108950F931F93CF93DF9324
:100E7000CDB7DEB7C851D1400FB6F894DEBF0FBE74
:100E8000CDBF0E941A07CF57DF4F19821882C15871
:100E9000D040CD5FDE4F19821882C350D1409E01F1
:100EA0002F573F4F40E450E0BE016F5F7F4F8DE012
:100EB00091E00E942704892B21F481E191E00E94B6
:100EC0002507CF57DF4F68817981C158D040CE01C7
:100ED00001960E941005CF57DF4F68817981C15874
:100EE000D040CE0101960E949405892B21F48BE11C
:100EF00091E00E942507CF57DF4F68817981C15863
:100F0000D0408E010D5F1E4F20E430E0AE014D5702
:100F10005F4FCE0101960E945C01892B21F488E28B
:100F200091E00E942507CB5FDE4F188219821A825A
:100F30001B82C550D140CD5FDE4F68817981C3509F
:100F4000D140AE014B5F5E4FCE018D579F4F0E9447
:100F50009502892B21F48CE391E00E942507C85F5C
:100F6000DE4F8881C850D1408F93C95FDE4F8881A2
:100F7000C750D1408F93CA5FDE4F8881C650D140A1
:100F80008F93CB5FDE4F8881C550D1408F9386E031
:100F900091E09F938F931F9280E18F938E01075F63
:100FA0001E4F1F930F930E94F411C8010E94250742
:100FB000CF57DF4F68817981C158D040CE0101966B
:100FC0000E9450080FB6F894DEBF0FBECDBF80E080
:100FD00090E0C85EDE4F0FB6F894DEBF0FBECDBF07
:100FE000DF91CF911F910F91089584E890E00E94C6
:100FF0003A0E009739F020E430E0FC013183208381
:10100000138212820895FC01892BB1F02281338171
:10101000808191812817390790F4C9010196938343
:1010200082832E5F3F4F220F331FE20FF31F718326
:10103000608381E090E0089580E090E0089580E092
:1010400090E008950097C9F0FC01228133812115B9
:101050003105B1F0A90141505109538342832F5FFB
:101060003F4F220F331FE20FF31F80819181FB015D
:101070009183808381E090E0089580E090E008957E
:1010800080E090E00895DC011296ED91FC911397B9
:101090003196EE0FFF1FE80FF91F808191810895AF
:1010A000CF92DF92EF92FF920F931F93CF93DF9334
:1010B0006C017B0100E010E00FC0E801CC0FDD1FE8
:1010C000CC0DDD1D88819981009721F00E94D20E00
:1010D000198218820F5F1F4F0E151F0570F3DF91E5
:1010E000CF911F910F91FF90EF90DF90CF900895D7
:1010F0005058BB27AA270E9490080C94D4090E943C
:10110000C60938F00E94CD0920F039F49F3F19F448
:1011100026F40C94C3090EF4E095E7FB0C94BD098A
:10112000E92F0E94E50958F3BA176207730784078D
:10113000950720F079F4A6F50C94070A0EF4E095D3
:101140000B2EBA2FA02D0B01B90190010C01CA0181
:10115000A0011124FF27591B99F0593F50F4503E2C
:1011600068F11A16F040A22F232F342F4427585F1E
:10117000F3CF469537952795A795F0405395C9F736
:101180007EF41F16BA0B620B730B840BBAF09150EE
:10119000A1F0FF0FBB1F661F771F881FC2F70EC08D
:1011A000BA0F621F731F841F48F487957795679560
:1011B000B795F7959E3F08F0B0CF9395880F08F04C
:1011C0009927EE0F9795879508950E94990908F43D
:1011D00081E008950E94FE080C94D4090E94CD0974
:1011E00058F00E94C60940F029F45F3F29F00C94A2
:1011F000BD0951110C94080A0C94C3090E94E50919
:1012000068F39923B1F3552391F3951B550BBB2735
:10121000AA2762177307840738F09F5F5F4F220F7A
:10122000331F441FAA1FA9F335D00E2E3AF0E0E871
:1012300032D091505040E695001CCAF72BD0FE2FBB
:1012400029D0660F771F881FBB1F2617370748074F
:10125000AB07B0E809F0BB0B802DBF01FF27935807
:101260005F4F3AF09E3F510578F00C94BD090C9405
:10127000080A5F3FE4F3983ED4F386957795679527
:10128000B795F7959F5FC9F7880F911D969587953C
:1012900097F90895E1E0660F771F881FBB1F62175B
:1012A00073078407BA0720F0621B730B840BBA0B19
:1012B000EE1F88F7E0950895E89409C097FB3EF487
:1012C00090958095709561957F4F8F4F9F4F992393
:1012D000A9F0F92F96E9BB279395F6958795779511
:1012E0006795B795F111F8CFFAF4BB0F11F460FFD1
:1012F0001BC06F5F7F4F8F4F9F4F16C0882311F029
:1013000096E911C0772321F09EE8872F762F05C03C
:10131000662371F096E8862F70E060E02AF09A95D7
:10132000660F771F881FDAF7880F9695879597F9CC
:101330000895990F0008550FAA0BE0E8FEEF161666
:101340001706E807F907C0F012161306E407F507B9
:1013500098F0621B730B840B950B39F40A2661F02D
:10136000232B242B252B21F408950A2609F4A140D0
:10137000A6958FEF811D811D089597F99F6780E8DD
:1013800070E060E008959FEF80EC089500240A94D7
:101390001616170618060906089500240A94121650
:1013A0001306140605060895092E0394000C11F483
:1013B000882352F0BB0F40F4BF2B11F460FF04C030
:1013C0006F5F7F4F8F4F9F4F089557FD9058440F89
:1013D000551F59F05F3F71F04795880F97FB991F94
:1013E00061F09F3F79F08795089512161306140651
:1013F000551FF2CF4695F1DF08C0161617061806DE
:10140000991FF1CF86957105610508940895E894B8
:10141000BB2766277727CB0197F908950E94990982
:1014200008F48FEF08950E94260A0C94D4090E94B4
:10143000C60938F00E94CD0920F0952311F00C94D4
:10144000BD090C94C30911240C94080A0E94E509F3
:1014500070F3959FC1F3950F50E0551F629FF00107
:10146000729FBB27F00DB11D639FAA27F00DB11D20
:10147000AA1F649F6627B00DA11D661F829F2227A9
:10148000B00DA11D621F739FB00DA11D621F839F30
:10149000A00D611D221F749F3327A00D611D231F06
:1014A000849F600D211D822F762F6A2F11249F5754
:1014B00050409AF0F1F088234AF0EE0FFF1FBB1F57
:1014C000661F771F881F91505040A9F79E3F510516
:1014D00080F00C94BD090C94080A5F3FE4F3983E39
:1014E000D4F3869577956795B795F795E7959F5FC0
:1014F000C1F7FE2B880F911D9695879597F9089552
:10150000A0E1B0E0E6E8FAE00C94030E7C011B01D8
:101510006A01FC0117821682838181FF44C39E0108
:101520002F5F3F4F3901F7019381F10193FD8591C1
:1015300093FF81911F01882309F431C3853239F467
:1015400093FD859193FF81911F01853239F4B70195
:1015500090E00E94B81156016501E5CF10E0512CD2
:10156000912CFFE1F915D8F08B3279F038F4803204
:1015700079F08332A1F4F92DF0612EC08D3261F043
:10158000803369F4292D21602DC0392D3260932ECE
:10159000892D8460982E2AC0E92DE86015C097FC3B
:1015A0002DC020ED280F2A3088F496FE06C03AE0C0
:1015B000139F200D1124122F19C08AE0589E200D70
:1015C0001124522EE92DE0629E2E10C08E3231F48D
:1015D00096FCE5C2F92DF0649F2E08C08C3621F4EC
:1015E000292D2068922E02C0883641F4F10193FD26
:1015F000859193FF81911F018111B3CF9BEB980FD0
:10160000933020F4992D9061805E07C09BE9980F7C
:10161000933008F066C1992D9F7E96FF16E09F7368
:10162000992E853619F49064992E08C0863621F4D7
:10163000392F3068932E02C01111115097FE07C048
:101640001C3350F444244394410E27E00BC018305F
:1016500038F027E017E005C027E09CE3492E02C0E0
:10166000212F412C560184E0A80EB11CF6016081A7
:10167000718182819381042DA3010E94A9106C01C4
:10168000F981FC87F0FF02C0F3FF06C091FC06C0A1
:1016900092FE06C000E205C00DE203C00BE201C0ED
:1016A00000E08C858C7019F001115AC29BC297FE24
:1016B00010C04C0CFC85F4FF04C08A81813309F40E
:1016C0004A94141474F528E0241578F588E0482E1F
:1016D0002CC096FC2AC0812F90E08C159D059CF0B3
:1016E0003CEFC3163FEFD30674F0892D8068982E27
:1016F0000AC0E2E0F0E0EC0FFD1FE10FF11D808178
:10170000803319F411501111F4CF97FE0EC0442408
:101710004394410E812F90E0C816D9062CF41C1971
:1017200004C04424439401C010E097FE06C01C147A
:101730001D0434F4C601019605C085E090E002C0A6
:1017400081E090E001110196112331F0212F30E06A
:101750002F5F3F4F820F931F252D30E08217930795
:1017600014F4581A01C0512C892D897049F4552060
:1017700039F0B70180E290E00E94B8115A94F7CF97
:10178000002329F0B701802F90E00E94B81193FC4C
:1017900009C0552039F0B70180E390E00E94B811EC
:1017A0005A94F7CF97FE4CC04601D7FE02C0812C59
:1017B000912CC60188199909F301E80FF91FFE87DA
:1017C000ED87960124193109388B2F87012F10E0FE
:1017D0001195019511093FEF8316930629F4B7017E
:1017E0008EE290E00E94B811C814D9044CF08F85A5
:1017F00098898815990524F4ED85FE85818101C0BD
:1018000080E3F1E08F1A91082D853E852F5F3F4FD1
:101810003E872D87801691062CF0B70190E00E943C
:10182000B811D9CFC814D90441F49A81963320F461
:10183000953319F43C8534FF81E3B70190E04EC045
:101840008A81813319F09C859F7E9C87B70190E047
:101850000E94B811111105C094FC18C085E690E0F3
:1018600017C0B7018EE290E00E94B8111E5F82E0BF
:1018700001E0080FF301E80FF11D8081B70190E04E
:101880000E94B811802F0113F3CFE6CF85E490E0DA
:10189000B7010E94B811D7FC06C0C114D10441F4AD
:1018A000EC85E4FF05C0D194C194D1088DE201C05C
:1018B0008BE2B70190E00E94B81180E32AE0C216E3
:1018C000D1042CF08F5FFAE0CF1AD108F7CFB7011F
:1018D00090E00E94B811B701C601C0960E94B811ED
:1018E00054C1833631F0833779F0833509F056C01F
:1018F00020C0560132E0A30EB11CF601808189831D
:1019000001E010E0630112C05601F2E0AF0EB11C1D
:10191000F601C080D18096FE03C0612F70E002C046
:101920006FEF7FEFC6010E94AD118C01F92DFF779B
:1019300014C0560122E0A20EB11CF601C080D18075
:1019400096FE03C0612F70E002C06FEF7FEFC6010B
:101950000E94A2118C01F92DF0689F2EF3FD1AC090
:10196000852D90E008171907A8F4B70180E290E0F0
:101970000E94B8115A94F4CFF60197FC859197FE16
:1019800081916F01B70190E00E94B81151105A94F3
:10199000015011090115110579F7F7C0843611F0CE
:1019A000893661F5560197FE09C024E0A20EB11CEC
:1019B000F60160817181828193810AC0F2E0AF0EED
:1019C000B11CF60160817181072E000C880B990B08
:1019D000F92DFF769F2E97FF09C090958095709501
:1019E00061957F4F8F4F9F4FF0689F2E2AE030E028
:1019F000A3010E944612C82EC6183FC0092D853784
:101A000021F40F7E2AE030E01DC0097F8F3691F06F
:101A100018F4883559F0C3C0803719F0883711F0B1
:101A2000BEC0006104FF09C0046007C094FE08C086
:101A3000066006C028E030E005C020E130E002C0CA
:101A400020E132E0560107FF09C084E0A80EB11C76
:101A5000F601608171818281938108C0F2E0AF0E4E
:101A6000B11CF6016081718180E090E0A3010E94C9
:101A70004612C82EC6180F77902E96FE0BC0092D61
:101A80000E7FC11650F494FE0AC092FC08C0092DC6
:101A90000E7E05C0DC2C092D03C0DC2C01C0D12E2C
:101AA00004FF0DC0FE01EC0DF11D8081803311F4A7
:101AB000097E09C002FF06C0D394D39404C0802FCE
:101AC000867809F0D39403FD11C000FF06C01C2DD9
:101AD000D51480F4150D1D190DC0D51458F4B70197
:101AE00080E290E00E94B811D394F7CFD51410F49F
:101AF0005D1801C0512C04FF10C0B70180E390E0D5
:101B00000E94B81102FF17C001FD03C088E790E0F2
:101B100002C088E590E0B7010CC0802F867859F0AC
:101B200001FF02C08BE201C080E207FD8DE2B70138
:101B300090E00E94B811C11638F4B70180E390E03C
:101B40000E94B8111150F7CFCA94F301EC0DF11DAA
:101B50008081B70190E00E94B811C110F5CF15C087
:101B6000F4E0F51560F584E0581A93FE1FC00111EA
:101B700027C02C8523FF2AC00AEF10E0392D3071D1
:101B8000932EF8018491811124C0552009F4E4CCEE
:101B9000B70180E290E00E94B8115A94F6CFF701A5
:101BA0008681978126C08FEF9FEF23C0B70180E227
:101BB00090E00E94B8115A945110F8CFD8CF512C10
:101BC000B701802F90E00E94B811D3CF0EEF10E044
:101BD000D5CF91108052B70190E00E94B8110F5FED
:101BE0001F4FCFCF23E0251510F483E0BDCF512C3C
:101BF000C0CF6096E2E10C941F0EEE0FFF1F059020
:101C0000F491E02D09942F923F924F925F926F9240
:101C10007F928F929F92AF92BF92CF92DF92EF927C
:101C2000FF920F931F93CF93DF93CDB7DEB7CA1BFD
:101C3000DB0B0FB6F894DEBF0FBECDBF09942A8828
:101C4000398848885F846E847D848C849B84AA84D0
:101C5000B984C884DF80EE80FD800C811B81AA815D
:101C6000B981CE0FD11D0FB6F894DEBF0FBECDBF28
:101C7000ED0108950F931F93CF93DF938230910569
:101C800010F482E090E0E0915C01F0915D0120E0D1
:101C900030E0A0E0B0E0309719F14081518102813D
:101CA000138148175907C8F08417950769F41097EE
:101CB00031F012960C93129713961C9327C0009341
:101CC0005C0110935D0122C02115310519F0421706
:101CD000530718F49A01BD01EF01DF01F801DBCFD2
:101CE00021153105F9F0281B390B2430310580F41A
:101CF0008A819B816115710521F0FB0193838283A9
:101D000004C090935D0180935C01FE01329644C053
:101D1000FE01E20FF31F8193919322503109398321
:101D200028833AC020915A0130915B01232B41F462
:101D3000209102013091030130935B0120935A01FD
:101D400020910001309101012115310541F42DB799
:101D50003EB74091040150910501241B350BE091E1
:101D60005A01F0915B01E217F307A0F42E1B3F0B21
:101D70002817390778F0AC014E5F5F4F24173507FD
:101D800048F04E0F5F1F50935B0140935A018193BF
:101D9000919302C0E0E0F0E0CF01DF91CF911F917D
:101DA0000F910895CF93DF93009709F481C0FC0150
:101DB000329713821282A0915C01B0915D0110975D
:101DC00081F420813181820F931F20915A0130913B
:101DD0005B012817390751F5F0935B01E0935A0135
:101DE00067C0ED0120E030E0CE17DF0740F44A8104
:101DF0005B819E0141155105F1F0EA01F5CFD383D6
:101E0000C28340815181840F951FC817D90759F4A7
:101E100088819981840F951F0296918380838A819E
:101E20009B81938382832115310529F4F0935D0111
:101E3000E0935C013DC0E901FB83EA83499159913C
:101E4000C40FD51FEC17FD0761F480819181840FC9
:101E5000951F0296E90199838883828193819B83F0
:101E60008A83E0E0F0E012968D919C9113970097A1
:101E700019F0FD01DC01F7CF8D919C9111979D0127
:101E80002E5F3F4F820F931F20915A0130915B01CB
:101E90002817390769F4309729F410925D011092E0
:101EA0005C0102C013821282B0935B01A0935A01BD
:101EB000DF91CF910895A0E0B0E0E1E6FFE00C945F
:101EC000090EEC016B016115710519F0FB0191839D
:101ED00080837E01FFEFEF1AFF0A0881802F90E0D8
:101EE0000E948111892B11F0E701F3CF0D3239F4F3
:101EF0007E0182E0E80EF11C098111E008C00B327E
:101F000029F47E0192E0E90EF11C098110E0E7015D
:101F1000219743E050E06AE071E0CE010E948A110F
:101F2000892BC1F4239645E050E065E071E0CE01D5
:101F30000E948A11892B09F42596C114D10419F045
:101F4000F601D183C0831111F6C060E070E080E833
:101F50009FE7FAC043E050E062E071E0CE010E94EA
:101F60008A11892B59F4C114D10409F4E9C0F2E0B3
:101F7000EF0EF11CF601F182E082E2C020E030E0D9
:101F8000A901C0E0D0E0F70180EDA82EA00E89E005
:101F90008A1530F1912F9260B92E812F887012FF2F
:101FA00004C0811124C0219622C081112197A5E08F
:101FB000B0E00E94A712DC01CB01880F991FAA1F75
:101FC000BB1F9C01AD012A0D311D411D511D28393A
:101FD00089E93807480789E1580748F0166006C0C4
:101FE0009EEFA9120AC013FD40C01860B12E8FEFFA
:101FF000E81AF80A00811B2DC6CF802F8F7D85340B
:10200000A1F580818D3211F4106106C08B3221F070
:10201000319661E070E004C08181329662E070E048
:1020200080538A3018F0E61BF70B1FC060E070E0A9
:1020300060389CE079075CF4DB01AA0FBB1FAA0F94
:10204000BB1F6A0F7B1F660F771F680F711D3196CC
:10205000DF0111978C9180538A3050F314FF03C035
:10206000719561957109C60FD71F11FF08C0C11482
:10207000D10429F0CF010197F60191838083CA0131
:10208000B9010E945C09212F2370233019F04B0104
:102090005C0106C04B015C01B7FAB094B7F8B0948C
:1020A00020E030E0A901C501B4010E94E5088823C1
:1020B00009F43EC0D7FF06C0D195C195D10901E210
:1020C00011E002C009E311E06801F8E1CF1AD1087C
:1020D00090E2E92EF12CCE15DF0574F0F801259180
:1020E000359145915491C501B4010E94130A4B01E9
:1020F0005C01CE19DF09EFCF04501109F594E79484
:102100000C151D0541F78A2D880F8B2D881F8F3FD9
:1021100049F020E030E0A901C501B4010E94E508C2
:10212000811106C082E290E090935F0180935E018E
:10213000C501B40109C060E070E080E89FEF04C011
:1021400060E070E080EC9FE7CDB7DEB7ECE00C9488
:10215000250E283008F027E03327DA01990F311DCA
:1021600087FD916000966105710539F432602E5F3C
:102170003D9330E32A95E1F708959F3F30F0803892
:102180007105610509F03C5F3C5F3D93913008F0BB
:102190008068911DDF93CF931F930F93FF92EF926F
:1021A000192F987F9695E92F96959695E90FFF2719
:1021B000E956FE4F99273327EE24FF24A701E701B4
:1021C00005900894079428F4360FE71EF81E491F5F
:1021D000511D660F771F881F991F0694A1F7059060
:1021E000079428F4E70EF81E491F561FC11D770FEC
:1021F000881F991F661F0694A1F70590079428F47D
:10220000F80E491F561FC71FD11D880F991F661F43
:10221000771F0694A1F70590079420F4490F561FE5
:10222000C71FD81F990F661F771F881F0694A9F72D
:1022300084911095177041F0D695C795579547959D
:10224000F794E7941A95C1F7EDE3F1E068941590DF
:10225000159135916591959105907FE27395E118FF
:10226000F10A430B560BC90BD009C0F7E10CF11E64
:10227000431F561FC91FD01D7EF4703311F48A9579
:10228000E6CFE894015030F0080F0AF40027021757
:1022900008F4202F2395022F7A3328F079E37D93D9
:1022A0002A95E9F710C07D932A9589F606949795AB
:1022B0006795379517951794E118F10A430B560B5C
:1022C000C90BD00998F023957E9173957A3308F065
:1022D00070E37C932013B8F77E9170617D9330F0AA
:1022E000839571E37D9370E32A95E1F71124EF90D4
:1022F000FF900F911F91CF91DF91992787FD9095C6
:10230000089591110C94A412803219F089508550CF
:10231000C8F70895FB01DC014150504088F08D91D1
:1023200081341CF08B350CF4805E659161341CF0B7
:102330006B350CF4605E861B611171F3990B089587
:10234000881BFCCFFC010590615070400110D8F74C
:10235000809590958E0F9F1F0895FC0161507040ED
:1023600001900110D8F7809590958E0F9F1F0895CA
:102370000F931F93CF93DF93FB01238121FD03C0B4
:102380008FEF9FEF2CC022FF16C04681578124811A
:1023900035814217530744F4A081B1819D012F5F1D
:1023A0003F4F318320838C93268137812F5F3F4FAE
:1023B0003783268314C08B01EC01FB010084F18577
:1023C000E02D0995892BE1F6D80116968D919C9107
:1023D0001797019617969C938E931697CE01DF91CF
:1023E000CF911F910F910895AEE0B0E0EAEFF1E1D7
:1023F0000C94110E0D891E898F89988D26E02C83EF
:102400001A83098397FF02C080E090E801979E83BA
:102410008D83AE01455E5F4F698D7A8DCE01019649
:102420000E94800A4D815E8157FD0AC02F81388548
:10243000421753070CF49A01F801E20FF31F1082C0
:102440002E96E4E00C942D0EAEE0B0E0EAE2F2E16C
:102450000C94110E0D891E8986E08C831A830983E2
:102460008FEF9FE79E838D83AE01475E5F4F6F893D
:10247000788DCE0101960E94800AEF81F885E00FE9
:10248000F11F10822E96E4E00C942D0EFA01AA277B
:10249000283051F1203181F1E8946F936E7F6E5FA7
:1024A0007F4F8F4F9F4FAF4FB1E03ED0B4E03CD055
:1024B000670F781F891F9A1FA11D680F791F8A1F38
:1024C000911DA11D6A0F711D811D911DA11D20D09F
:1024D00009F468943F912AE0269F11243019305D59
:1024E0003193DEF6CF010895462F4770405D41934A
:1024F000B3E00FD0C9F7F6CF462F4F70405D4A3397
:1025000018F0495D31FD4052419302D0A9F7EACF5E
:10251000B4E0A6959795879577956795BA95C9F78D
:1025200000976105710508959B01AC010A2E069480
:102530005795479537952795BA95C9F7620F731F39
:10254000841F951FA01D08959927882708950E942C
:10255000B212A59F900DB49F900DA49F800D911D68
:1025600011240895A29FB001B39FC001A39F700DD5
:10257000811D1124911DB29F700D811D1124911D8B
:062580000895F894FFCF5E
:10258600000060012000256600256C6600375E337A
:10259600006C6578206572726F720073796E746173
:1025A60078206572726F72006572726F7220696E42
:1025B60020636F6E76657273696F6E006572726FF7
:1025C6007220696E2063616C63756C6174696F6EED
:0225D600000003
:00000001FF
